:020000040800F2
:10000000600C002035020008F1410008453B000863
:100010006140000879140008355D00080000000008
:10002000000000000000000000000000D1510008A6
:100030007D1400080000000061420008D556000849
:100040004F0200084F0200084F0200084F0200084C
:100050004F0200084F0200084F0200084F0200083C
:100060004F0200084F0200084F0200084F0200082C
:100070004F0200084F0200084F0200084F0200081C
:100080004F0200084F0200084F0200084F0200080C
:100090004F0200084F0200084F0200084F020008FC
:1000A0004F020008A55700084F0200084F02000841
:1000B0004F0200084F0200084F0200084F020008DC
:1000C0004F0200084F0200084F0200084F020008CC
:1000D0004F0200084F0200084F0200084F020008BC
:1000E0004F0200084F0200084F02000800F002F81B
:1000F00000F090F80AA090E8000C82448344AAF132
:100100000107DA4501D100F085F8AFF2090EBAE82F
:100110000F0013F0010F18BFFB1A43F0010318473B
:10012000A0930000C0930000103A24BF78C878C1A3
:10013000FAD8520724BF30C830C144BF04680C60ED
:10014000704700000023002400250026103A28BF35
:1001500078C1FBD8520728BF30C148BF0B60704739
:100160006E2900F0C581702900F00783662908F028
:10017000EE82652908F0EB82672908F0E8826129A0
:1001800008F0E78203681B0A28BF41F08001692953
:1001900000F07281642900F06F81752900F06C8194
:1001A0006F2900F09582782900F0D382E92900F0C8
:1001B0002F82E42900F02C82F52900F02982EF2912
:1001C00000F09282F82900F0D2820368DB0928BF90
:1001D00041F08001632900F0D387732900F0D887AC
:1001E000E32900F0E387F32900F0E8870020704757
:1001F0001FB501F039F804000020002107F0E0F8F5
:10020000401C60600020002107F0C4F8E0601FBDC2
:1002100010B510BD00F0FAFF1146FFF7E9FF05F039
:10022000EBFD01F0D7F803B4FFF7F2FF03BC01F0D8
:100230001BF900000948804709480047FEE7FEE730
:10024000FEE7FEE7FEE7FEE7FEE7FEE7FEE7FEE786
:1002500004480549054A064B70470000A1570008AD
:10026000ED00000860060020600C002060080020FF
:10027000600800202DE9F04104460F46D4E90661EC
:10028000304607F05BFE256A294607F057FE2060DE
:100290000121284608F0BFFA86F0004201461046C8
:1002A00008F0E0F9C4E90105002F08BFBDE8F081BE
:1002B0000020E06020616061BDE8F0810021C16044
:1002C0000161416170470000004870473000002024
:1002D0000FB41CB5084B06AA7B44694600900598EC
:1002E00000F01FF904460020694600F02DF9204671
:1002F0001CBC5DF814FB00006D0200004FF0000212
:100300000429C0F0128010F0030C00F01B80CCF127
:10031000040CBCF1020F18BF00F8012BA8BF20F895
:10032000022BA1EB0C0100F00DB85FEAC17C24BFE9
:1003300000F8012B00F8012B48BF00F8012B704793
:100340004FF0000200B5134694469646203922BF6E
:10035000A0E80C50A0E80C50B1F12001BFF4F7AFB9
:10036000090728BFA0E80C5048BF0CC05DF804EB9B
:10037000890028BF40F8042B08BF704748BF20F809
:10038000022B11F0804F18BF00F8012B7047704707
:1003900070477047004870473000002010B5FFF7E5
:1003A00093FF006810BD10B50446FFF78DFF046091
:1003B00010BD70B5044685690068C10601D53026B8
:1003C00000E02026C00707D070BDD4E901213046E7
:1003D0009047206A401C20626D1EF6D570BD70B536
:1003E000044685690078C00707D170BDD4E90121B2
:1003F00020209047206A401C20626D1EF6D570BDFB
:1004000009684A0501D540B27047C905FCD500B25C
:10041000704709684A0501D5C0B27047C905FCD5C7
:1004200080B2704770B50C460546012A05D0287881
:10043000800600D5EA69002302E0012305E05B1C89
:10044000934202D2E05C0028F9D1A869E618C01AEC
:10045000A861286A184428622846FFF7AAFF04E02A
:10046000D5E9012114F8010B9047B442F8D328468E
:10047000FFF7B5FF70BD00002DE9F04106460024EE
:1004800010687529314616A510D0FFF7B9FF00286E
:1004900002DA404213A507E031688A0701D512A5A8
:1004A00002E0490704D511A5012401E0FFF7B1FFDF
:1004B00000210A2206F1240709E0B0FBF2FCB0FBA0
:1004C000F2F302FB1C00303078541846491C002817
:1004D000F3D123462A463046BDE8F04100F061BA28
:1004E000000000002D0000002B0000002000000094
:1004F00011680268006A530501D508700AE0D30547
:1005000001D5088006E0130603D5C217C1E9000231
:1005100000E008600120704701694A1C0261087808
:10052000704700B58FB0CDE9013100210591054933
:100530007944CDE903101146684600F029F90FB05F
:1005400000BD0000E5FFFFFF0A6802F8010B0A602A
:10055000704700002DE9FF5F15468A460446DFF824
:10056000AC80F8440027D8E900103E46CDE90010E1
:1005700010E03AF816106A4602A800F023FE411C6B
:1005800007D02178890603D5E269391891420DD840
:100590000744761C2078800602D5E069B84205DD64
:1005A000AE42E6DB3AF816000028E2D1A069C01B93
:1005B000A0612046FFF7FDFED8E90010CDE900104C
:1005C000002017E03AF818106A4602A800F0FAFD79
:1005D000B0F1FF3F81460BD000250DF1080B05E07F
:1005E000D4E901211BF8050090476D1C4D45F7D358
:1005F00008F10100B0428046E4DB206A3844206202
:100600002046FFF7ECFEBDE8FF9F00002E830000B0
:100610002DE9F0418046D21D22F007020025D2E9E3
:100620000002F52915A614D0011E72F1000106DAA8
:100630000023D0EB030063EB020211A608E0D8F818
:1006400000108B0701D50FA602E0490701D50EA6C1
:1006500001251146002408F1240704E000F05CF9AC
:1006600030323A55641C50EA0102F7D12B4632462B
:1006700021464046BDE8F04100F093B9000000007B
:100680002D0000002B0000002000000030B40021ED
:1006900000F1240408E002F00705D208303542EAF0
:1006A0004372DB086554491C52EA0305F3D1046820
:1006B000002310A2250708D504F020040C4304D021
:1006C000C46901230CA2641EC46130BC00F069B986
:1006D00010B5044621461068FFF79BFE02462046EF
:1006E000BDE810400023D1E7D21D22F00701D1E977
:1006F0000023CBE70000000030000000F0B40D46FE
:100700000188090502D5214C7C4402E01F4C7C4441
:100710000E34002100F1240608E002F00F07120950
:10072000E75D42EA03721B097754491C52EA03074A
:10073000F3D102780023120704D5702D06D009B139
:10074000022311342246F0BC00F02BB901231034EF
:10075000F8E770B504460D4621461068FFF759FECC
:10076000024629462046BDE870400023C6E7D21D58
:1007700022F00703D3E90023C0E70368126843F0BF
:10078000200303600823C3610023B7E790810000C2
:100790002DE9F05F894604464FF0000ADFF874B196
:1007A000FB44C0F820A02046E1688847002874D0A8
:1007B000252806D0D4E901219047206A401C2062F8
:1007C000F1E700265F462046E16888472028054675
:1007D00007DB312D05D2781910F8200C08B106433B
:1007E000F1E7B00701D526F00406C4F81CA00027E5
:1007F000C4F818A02A2D09D0284606F0F1FB38B31A
:1008000004EB8708303DC8F8185019E059F8041B6C
:10081000204604EB87029161E1688847012F054675
:1008200018D1E069002820DA26F020061DE0D8F86B
:10083000180000EB800005EB40003038C8F81800C5
:100840002046E1688847054606F0CAFB0028EED13D
:10085000012F0AD02E2D08D12046E16888477F1C41
:100860000546022F46F02006C4DBA069002803DA03
:10087000404246F00106A061F00701D026F01006C4
:100880006C2D0BD0682D09D04C2D39D06A2D35D068
:10089000742D35D07A2D33D016E038E0E1682F463C
:1008A00020468847B842054609D16C2F26D04FF420
:1008B0008060E168064320468847054604E06C2FC7
:1008C0001AD04FF4807006430DB3A5F141001928EA
:1008D00002D8203546F400664A462946204626605E
:1008E0004E46FFF73DFC80B101280BD0F61D26F0E7
:1008F000070000F1080956E74020E4E78020D8E728
:100900000020D6E706F104094DE7284652E7206AA1
:10091000BDE8F09F2081000030B5B0F10A0271F10E
:1009200000034FEA900E4EEA817EB0EB0E0061EBC1
:1009300091014FEA101E4EEA017E10EB0E0041EBD2
:1009400011114FEA102E4EEA016E10EB0E0041EB32
:1009500011214FEA104E4EEA014E10EB0E0041EB12
:100960001141401841F100014FEAD00040EA4170C6
:100970004FEAD1014FEA810444EA907410EB8005FC
:1009800044EB01046D1944EB0404521BA3414FF0E6
:10099000000348BF0A3200D530BD401C41F10001C0
:1009A00030BD2DE9F0470D4699469246044600F1C8
:1009B00024080168880604D5E06921F0100121604F
:1009C00000E00120A84201DD471B00E00027A169EB
:1009D0007A1902EB0900081AA0612078C00602D437
:1009E0002046FFF7E6FC002608E0D4E901211AF8CA
:1009F00006009047206A401C761C20624E45F4DBBE
:100A00002078C0060AD52046FFF7D3FC06E0D4E9DB
:100A1000012130209047206A401C2062381EA7F137
:100A20000107F4DC07E0D4E9012118F8050090473C
:100A3000206A401C2062281EA5F10105F3DC204637
:100A4000FFF7CDFC2078000602D50220BDE8F08734
:100A50000120FBE72DE9FF4F0C461E464FF0FF3704
:100A60008BB0D2E90001DDF860800A908A46C1F3BC
:100A70000A5505B93D46002108464FF00000BAF17D
:100A8000000F00F4400005DA00EB80004FF4400155
:100A900001EA50004FEA9059B9F1010F00DDB94663
:100AA0000A9850EA4A000ED044F61050A5F2FF35DD
:100AB00045432F14B8F1000F1ED07542291E1EDDCC
:100AC000C9F100021CE0B8F1010F4FF0000001D0A5
:100AD000302103E0F24305E02154401CB042FBDB2F
:100AE00030460022002121540B99C1F80880C1E949
:100AF00000200FB0BDE8F08FBD1B6D1CDEE74A463D
:100B000000DA694206A800F0F3FB06AB93E80700A1
:100B100003AB83E8070050460A9905F091FA8DE887
:100B20000700A0F500501F3800900398002D0ADD43
:100B300042F21F014A460844002303A90390684675
:100B400005F0FAFC09E0A0F500504A461F380023E2
:100B500003A90390684605F004FD8DE80700000432
:100B6000000C03D04FF0FF30410800E01046B8F110
:100B7000000F03D00022009215461EE0751E05D41A
:100B8000FFF7CAFE303262556D1EF9D5B346012219
:100B9000084302D000227F1C04E02078302801D1D5
:100BA00000227F1E002A099784D01DE0112D07DA4C
:100BB000FFF7B2FE303262556D1C50EA0102F5D1EA
:100BC000084302D00098C8B10EE00021681E05E07D
:100BD000235C625C63542254401E491C8142F7DB53
:100BE000AB46A81B401E0990002004F80B000B9890
:100BF000099AC0F80880C0E9002B7AE711264FF067
:100C0000000857E72DE9F04F88460446D21D22F030
:100C1000070191B0D1E90001CDE90A0105F0D8FD45
:100C200002460B98C00F01D02D2007E020688107F5
:100C300001D52B2002E0202101EAC000032A0990FF
:100C400001D0072A05DB03464146204600F010FB91
:100C50000BE12078800601D5E06900E00620B8F1BC
:100C6000650F814606D0B8F1660F18D0B8F1670F4E
:100C700070D131E00020B9F1110F009001DB112398
:100C800001E009F101030AAA01A90CA8FFF7E2FE9D
:100C9000DDE90C70002609F10105834647E00120DB
:100CA0004B4600904FF000470AAA01A90CA8FFF795
:100CB000D1FEDDE90DB00C995D46002610B909F1B1
:100CC00001000D18B9EB050003D4C0F1FF3609F19E
:100CD0000105A5EB09002BE0B9F1010F01DA4FF096
:100CE00001090020B9F1110F0090484601DD1123E0
:100CF00000E003460AAA01A90CA8FFF7ABFEDDE954
:100D00000C704D4600268346207800070AD4AB4578
:100D100000DA5D4601A8012D04DD411911F8011C1E
:100D2000302907D04F4502DA17F1040F04DA012009
:100D300082460FE06D1EEEE7002F02DCED1B3E4405
:100D400003E0781CA84200DD7D1CB81B00F1010AFD
:100D50004FF000472078000703D4AA4501DB4FF08D
:100D6000FF3A0021B7F1004F0DF143088DF8431011
:100D700024D002202B23002F01DA7F422D230A21C9
:100D8000021EA0F1010000DC5FB197FBF1FC97FBB4
:100D9000F1F201FB1C7C17460CF1300C08F801CD78
:100DA000EEE7A8F1010003702188090501D545216E
:100DB00000E06521A0F1010800F8011C09980FA9C5
:100DC000A1EB0807FF1D00B10120411901EBEA70FA
:100DD000A1693844081A401EA0612078C00602D4D8
:100DE0002046FFF7E6FA099828B1D4E90121904797
:100DF000206A401C20622078C00622D52046FFF7DA
:100E0000D8FA1EE0002E04DBB34502DD01A8805DA8
:100E100000E03020D4E901219047206A401C206284
:100E2000761CAAF101005FEA000A0AD100F01CFA60
:100E3000C0680168405CD4E901219047206A401CE9
:100E40002062281EA5F10105DCDC07E0D4E90121C0
:100E500018F8010B9047206A401C2062381EA7F149
:100E60000107F3DC2046FFF7BAFA032011B041E690
:100E70002DE9F04F04460D46D21D22F0070089B03F
:100E8000D0E900974846394605F0A2FC0246F80F23
:100E900001D02D2307E02068810701D52B2302E034
:100EA000202101EAC0038DF820300BB1012000E0C1
:100EB0000020032A824601D0072A04DB2946204667
:100EC00000F0D6F93FE12078800601D40D2500E03E
:100ED000E569C7F30A560D2D49DA00214FEA175B81
:100EE00008464FF00000002F00F4400007DA00EB46
:100EF00080004FF4400100EBD07001EA60008115E2
:100F0000012901DD4FF0FF3100224FEA850CBCF1D1
:100F1000180F06D31346ACF118004FF08052C240B0
:100F200003E04FF4801323FA0CF30CF10C0CBCF12A
:100F3000200F04D3ACF1200C09FA0CF001E007FA01
:100F40000CF000294FF0004801DD18B90FE00ED178
:100F500040450CD319EB02095F4121B9404502D14C
:100F60009F4329EA0209BBEB175F00D0761C20885B
:100F7000000502D57B48784402E07A487844193865
:100F800008AA302302F80A30037C0AF10101002E7E
:100F90000AF1020A53546A4602DC4FF0300101E0C4
:100FA0004FF031014FF001088DF8001002D0A6F289
:100FB000FF3603E059EA470100D06B4E002D02DCFA
:100FC0002178090704D54FF002082E218DF8011071
:100FD000C44600210BE0C7F303433F01C35C491C37
:100FE0006D1E02F80830052908F1010801DA002D0C
:100FF000F1DC00210CE000EB1973491C1B786D1E1D
:10100000082902F808304FEA091908F1010801DA45
:10101000002DF0DC21688B0602D516E0A8F101084E
:10102000E04505DD02EB080313F8013C302BF5D059
:10103000B8F1000F09DD02EB080313F8013C2E2B79
:1010400003D1090701D4A8F10108002D05DD3E21D7
:1010500002F808106D1E08F10108407C002E02F80D
:10106000080008F1010804DA2D20764202F8080091
:1010700002E02B2002F808000A214FF47A70864221
:1010800008F101080BDB96FBF0F3303302F808306F
:1010900096FBF0F308F1010800FB136601E0642EF3
:1010A0000CDB642096FBF0F3303302F8083096FB3B
:1010B000F0F308F1010800FB136601E00A2E06DBDD
:1010C00096FBF1F0303002F8080008F1010896FBB9
:1010D000F1F001FB1060303002F80800A16908F15E
:1010E000010808EB050202EB0A00081AA06120784B
:1010F000C00602D42046FFF75CF9216A08AE01EB76
:101100000A00206204E0D4E9012116F8010B90479F
:10111000BAF1010AF7D22078C00602D52046FFF7BF
:1011200048F96E4609E016F8010B3E280FD0D4E9C5
:1011300001219047206A401C2062B8F10108F2D2D8
:101140002046FFF74CF909B00320BDE8F08F206A74
:101150002844206203E0D4E90121302090476D1E2D
:10116000EBD3F8E7B97A000002FCFFFF10B5436942
:1011700013B1AFF3008001E0FFF754F9012010BD77
:10118000127800F124010A7000224A700122EDE772
:1011900011684FF0FF32E9E710B5436913B1AFF3BF
:1011A000008001E0FFF7D6F9012010BD128800F1A0
:1011B000240182840022C2840122EDE711684FF0ED
:1011C000FF32E9E72DE9F04116460C46054600F0EE
:1011D00043F8036893F80101012807D0FF2C12D8C7
:1011E000185D80B101202C70BDE8F081D3F80701B3
:1011F0003246214603F20713C7182846BC46BDE80D
:10120000F041002360474FF0FF30EDE77546FFF7F0
:10121000C1F8AE4605006946534620F007008546F2
:1012200018B020B5FFF714F8BDE820404FF00006D5
:101230004FF000074FF000084FF0000BAC46ACE851
:10124000C009ACE8C009ACE8C009ACE8C00921F0AD
:1012500007018D467047000010B500F005F8001D2D
:1012600010BD00BF5D6100000048704750000020C5
:101270002DE9F0411F46044603260168072A01F4C0
:10128000006004DB08B116A505E016A503E008B16F
:1012900015A500E015A521F010002060A069C01E72
:1012A000A0610FB1401EA0612046FFF782F84FB148
:1012B000D4E9012138469047206A401C2062C01CB6
:1012C000206206E0206AFAE7D4E9012115F8010B53
:1012D0009047761EF8D22046FFF781F8BDE8F081EE
:1012E0004E414E006E616E00494E4600696E6600CA
:1012F0002DE9F047814616468AB0354878440DC836
:101300008DE80D0032487844801C03AC0DC884E899
:101310000D0041F69B300844372190FBF1F290FB21
:10132000F1F5A5F1800501FB12041B3C02D56442D6
:10133000012000E00020DFF898A080460027FA4452
:10134000AAF1BE0A0EE0E0070AD03246684607EB73
:10135000470101230AEB810105F003F98DE807003D
:1013600064107F1C002CEED1194F7F44AE3F19E072
:10137000E80715D007EB04100DF1180A90E80E00ED
:101380008AE80E00C068F04201D1981908903246F0
:10139000012306A903A805F0E4F803AB83E80700DE
:1013A0006D10641C002DE3D14FF0010332466946F5
:1013B000B8F1000F03A802D005F0BEF801E005F077
:1013C000D0F8C9E90001C9F808200AB0BDE8F087E3
:1013D000C477000010B50446AFF300802046BDE896
:1013E0001040FEF720BF00004FF0013C50F8042BE6
:1013F00051F8043B9A4221D1A2EB0C03934313EA28
:10140000CC1317D150F8042B51F8043B9A4215D154
:10141000A2EB0C03934313EACC130BD150F8042B2B
:1014200051F8043B9A4209D1A2EB0C03934313EA0F
:10143000CC13DBD04FF00000704700BFD01A01BAC8
:10144000B1FA81F101F0180122FA01F0CB40DBB2D0
:10145000C0B2C01AC1F120012CFA01F3D11A914394
:1014600011EAC311E6D1704701491820ABBEFEE76F
:101470002600020070470000FFE7FEE7704700000B
:1014800081B0EFF3108072B60090FFE7FEE7000036
:1014900080B582B00090009820B9FFE700208DF859
:1014A00007003EE00099C86848610099086889888B
:1014B00000F0A2FE0099097A88422AD1FFE700993C
:1014C0000120C8600098806928B9FFE700F0ACFEF1
:1014D00000998861FFE700F0A7FE009A1169926900
:1014E000801A884214D3FFE700990868898800F0C1
:1014F00083FE0099097A884204D1FFE701208DF824
:1015000007000EE00099002088618DF8070008E0D0
:1015100003E000990020C860FFE700208DF8070075
:10152000FFE79DF8070002B080BD000085B0039082
:10153000029101928DF80330039818B1FFE70298E9
:1015400020B9FFE701208DF8130015E002980399F8
:1015500008600198039948609DF803000399087298
:101560000398006920B9FFE7039932200861FFE77B
:1015700000208DF81300FFE79DF8130005B07047B9
:1015800080B582B00190009101980099FEF7B6FEF7
:1015900002B080BDB0B590B094468E460446169811
:1015A0001599149A0F948DF83BE08DF83AC08DF898
:1015B0003930ADF83620ADF834108DF83300002006
:1015C0000B900A90BDF836000990FFE70998BDF826
:1015D0003410884261DCFFE79DF83B0006F0A8FE6E
:1015E00002909DF8390006F0A3FE0190099806F0DC
:1015F000DEF948F26E62CFF21B02039242F2F91357
:10160000C4F20903049306F075FA0022059248F229
:101610000003C4F26603069305F0D6FF05F0E6FE6C
:1016200005F0E6FC0146019806F016FF029906F067
:1016300085FC06F041FE0B909DF83A0006F078FE1E
:1016400008909DF8390006F073FE0790099806F09F
:10165000AEF9039A049B06F04DFA059A069B05F035
:10166000B3FF05F0C3FE05F0D1FD0146079806F073
:10167000F3FE089906F062FC06F01EFE0A900F9831
:101680009DF82C109DF828209DF8333000F0F0FADA
:10169000FFE709980130099098E710B0B0BD00004D
:1016A00080B584B084460698CDF80CC08DF80B1038
:1016B0008DF80A208DF809308DF808009DF8090092
:1016C0002028C0F2D380FFE79DF80900FF2800F32F
:1016D000CD80FFE79DF80800C00738B9FFE701207B
:1016E0008DF8070000208DF8060006E000208DF838
:1016F000070001208DF80600FFE79DF8090048F675
:101700000632C0F600020B2100FB01204FF6A0615B
:10171000CFF6FF71405C01308DF805009DF80500A3
:1017200040F29C01C2F20001087001208DF8040013
:10173000FFE79DF804000A2800F39780FFE70020E8
:101740008DF80300FFE79DF803009DF8051088421F
:1017500044DAFFE79DF809009DF804200B2100FB07
:10176000012048F60631C0F6000108444FF6A0619A
:10177000CFF6FF71405C9DF80310C1F10701C8402E
:10178000C00790B1FFE703989DF80B109DF8032068
:1017900011449DF80A209DF804301A449DF8073042
:1017A000C9B2D2B200F064FA11E003989DF80B10B0
:1017B0009DF8032011449DF80A209DF804301A4436
:1017C0009DF80630C9B2D2B200F052FAFFE7FFE747
:1017D0009DF8030001308DF80300B4E79DF8050083
:1017E00007283BDCFFE79DF805008DF80200FFE7C6
:1017F0009DF80200082830DCFFE79DF80800C007CC
:1018000090B9FFE703989DF80B109DF80220114452
:101810009DF80A209DF804301A449DF80630C9B29C
:10182000D2B200F025FA11E003989DF80B109DF854
:10183000022011449DF80A209DF804301A449DF8B6
:101840000730C9B2D2B200F013FAFFE7FFE79DF804
:10185000020001308DF80200CAE7FFE7FFE79DF8BC
:10186000040001308DF8040063E7FFE704B080BD99
:1018700010B58CB08C4686460F980E99CDF82CE0AA
:101880008DF82BC08DF82A208DF829308DF828107E
:101890008DF827009DF829009DF82B10884207DB62
:1018A000FFE79DF829009DF82B10401A029006E0F2
:1018B0009DF82B009DF82910401A0290FFE702982E
:1018C00008909DF828009DF82A10884207DBFFE762
:1018D0009DF828009DF82A10401A019006E09DF816
:1018E0002A009DF82810401A0190FFE70198079000
:1018F0009DF82B109DF829204FF0FF3091420146B2
:10190000B8BF012106919DF82A109DF82820914228
:10191000B8BF0120059008980799401A0490FFE786
:101920000B989DF82B109DF82A209DF8273000F089
:101930009FF99DF82B009DF82910884208D1FFE7F8
:101940009DF82A009DF82810884201D1FFE724E085
:1019500004980044039003980799494288420BDD9C
:10196000FFE707990498401A049006999DF82B0008
:1019700008448DF82B00FFE70398089988420BDA9A
:10198000FFE7089904980844049005999DF82A00F7
:1019900008448DF82A00FFE7C2E70CB010BD000034
:1019A00010B58AB084460C98CDF824C08DF8231069
:1019B0008DF822208DF821308DF820009DF821002F
:1019C00080088DF81F009DF821008DF81E000998F1
:1019D0009DF823109DF81E2011449DF81F30C91A50
:1019E0009DF822201A449DF820C0EE46CEF808C08B
:1019F0004FF4B47CCEF804C04FF4877CCDF810C00F
:101A0000CEF800C0D2B2C9B2FFF7C4FDDDF810C0F5
:101A100009989DF823109DF81F3019449DF8222045
:101A20001A449DF82040EE46CEF80840CEF804C097
:101A30004FF0B40CCDF814C0CEF800C0C9B2D2B289
:101A4000FFF7A8FDDDF814C009989DF823109DF854
:101A50001F3019449DF822209DF81EE07244D21ACE
:101A60009DF82040EE46CEF80840CEF804C04FF076
:101A70005A0CCDF818C0CEF800C0C9B2D2B2FFF7E8
:101A800089FDDDF818C009989DF823109DF81EE027
:101A900071449DF81F30C91A9DF822207244D21A51
:101AA0009DF82040EE46CEF80840CEF804C04FF036
:101AB000000CCEF800C0C9B2D2B2FFF76BFD099896
:101AC0009DF823309DF81FC003EB0C019DF82220E8
:101AD0009DF81EE07344A3EB0C039DF820E0EC4658
:101AE000CCF804E0CCF80020C9B2DBB2FFF7C0FEAE
:101AF00009989DF823309DF822209DF81FC002EB25
:101B00000C019DF81EE07244A2EB0C029DF820E04F
:101B1000EC46CCF804E0D2B2CCF80020CAB21946A8
:101B2000FFF7A6FE09989DF823309DF81EE003EB11
:101B30000E019DF81FC0A1EB0C019DF822207244FC
:101B400063449DF820E0EC46CCF804E0D2B2CCF837
:101B50000020DBB2C9B2FFF78BFE09989DF8232065
:101B60009DF81E100A449DF8223019449DF81FC0AC
:101B7000A1EB0C0163449DF820E0EC46CCF804E0B6
:101B8000DBB2CCF80030D3B2CAB21946FFF770FE10
:101B900009989DF823109DF81E2011449DF81F20E0
:101BA000891A9DF82220CB1EA2F1030C9DF820403B
:101BB000EE46CEF804405FFA8CFCCEF800C0C9B205
:101BC000DBB2FFF755FE09989DF823109DF81E2003
:101BD00011449DF81F20891A9DF82220CB1E02F186
:101BE000030C9DF82040EE46CEF804405FFA8CFCD2
:101BF000CEF800C0C9B2DBB2FFF73AFE09989DF8F3
:101C000023109DF81F2011449DF822209DF81E30BE
:101C10001A44CB1CA2F1030C9DF82040EE46CEF8EE
:101C200004405FFA8CFCCEF800C0C9B2D2B2DBB27D
:101C3000FFF71EFE09989DF823109DF81F20114400
:101C40009DF822209DF81E301A44CB1C02F1030C93
:101C50009DF82040EE46CEF804405FFA8CFCCEF8AA
:101C600000C0C9B2D2B2DBB2FFF702FE0AB010BDAB
:101C700083B002908DF807108DF806208DF805309E
:101C80009DF807007F2810DCFFE79DF8070000287B
:101C90000BD4FFE79DF80600032806DCFFE79DF85C
:101CA0000600B0F1FF3F01DCFFE72AE09DF80700E6
:101CB0009DF8061001F0F80100EB0110ADF80200EC
:101CC0009DF8050070B1FFE79DF8060000F00701E0
:101CD000012000FA01F30299BDF80220885C184344
:101CE00088540DE09DF8060000F00701012000FA7D
:101CF00001F30299BDF80220885C98438854FFE7FD
:101D0000FFE703B07047000070B586B09C4696466A
:101D10000C4605460D980C990B9A0A9B05958DF873
:101D200013408DF812E08DF811C08DF810308DF849
:101D30000F208DF80E108DF80D0005989DF81310EA
:101D40009DF812209DF811309DF810C09DF80D40AF
:101D5000EE46CEF80440CEF800C0FFF789FD0598A6
:101D60009DF811109DF810209DF80F309DF80EC0C1
:101D70009DF80D40EE46CEF80440CEF800C0FFF7C7
:101D800077FD05989DF80F109DF80E209DF81330F3
:101D90009DF812C09DF80D40EE46CEF80440CEF8F6
:101DA00000C0FFF765FD06B070BD000082B0019075
:101DB000ADF80210ADF80020FFE7BDF80200BDF855
:101DC000001088420DDAFFE70199BDF80220885C17
:101DD000C0438854FFE7BDF802000130ADF80200AF
:101DE000EBE702B07047000080B584B084460698E7
:101DF000CDF80CC08DF80B108DF80A208DF8093045
:101E00008DF808009DF80A00ADF80600FFE7BDF860
:101E100006009DF80A109DF808201144884221DA36
:101E2000FFE7BDF806109DF80B0000EB0110ADF8C0
:101E30000400BDF806109DF80B0000EB01109DF8A2
:101E400009100844ADF802000398BDF80410BDF86D
:101E50000220FFF7ABFFFFE7BDF806000130ADF849
:101E60000600D4E704B080BD10B586B08C46864627
:101E700009980899CDF814E08DF813C08DF8122058
:101E800003938DF80B108DF80A00FFE70398007894
:101E900000B3FFE705989DF813109DF81220039BEF
:101EA0001B789DF80AC0EE46CEF800C0FFF7F8FB9D
:101EB00040F29C00C2F2000000789DF80B1008442C
:101EC0009DF81310084401388DF813000398013071
:101ED0000390DBE706B010BD90B00F900E9100208C
:101EE0000D900990FFE70E9800680D99C8400028F2
:101EF00000F07F81FFE70D99012088400C900E983B
:101F000000680C9908400B900B980C99884240F09F
:101F10006C81FFE70E9840680590002851D0FFE7DC
:101F2000059801283AD0FFE7059802283FD0FFE73F
:101F3000059803285FD0FFE70598112832D0FFE706
:101F40000598122838D0FFE705980021C1F2110149
:101F5000884236D0FFE705980021C1F2120188427D
:101F60002FD0FFE705980021C1F22101884228D037
:101F7000FFE705980021C1F22201884221D0FFE746
:101F800005980021C1F2310188421AD0FFE7059877
:101F90000021C1F23201884213D02FE00E98C068B0
:101FA00009902CE00E98C0680430099027E00E9844
:101FB000C0680830099022E00E98C0680C30099083
:101FC0001DE00E98806818B9FFE70420099011E021
:101FD0000E988068012806D1FFE7082009900C9828
:101FE0000F99086105E0082009900C980F99486145
:101FF000FFE7FFE703E00020099000E0FFE70B9810
:10200000FF2803D8FFE70F98049003E00F980430EF
:102010000490FFE7049808900B98FF2804D8FFE786
:102020000D988000039006E00D996FF01F0000EB03
:1020300081000390FFE70398079008980068079ACB
:102040000F219140884309999140084308990860FD
:102050000E98C079C006002840F1C680FFE7FFE770
:1020600041F21800C4F20200016841F00101016070
:10207000006800F0010006900698FFE70D9820F038
:1020800003000821C4F2010140580A900D9800F0A5
:10209000030081000F2000FA01F10A9888430A909A
:1020A0000F9840F60001C4F20101884203D1FFE716
:1020B0000020029026E00F9840F60041C4F2010192
:1020C000884203D1FFE70120019018E00F9841F208
:1020D0000001C4F20101884203D1FFE70220009011
:1020E0000AE00F9941F20042C4F201020420914239
:1020F00008BF03200090FFE700980190FFE70198D8
:102100000290FFE702980D9901F00301890000FA9F
:1021100001F10A9808430A900A980D9921F00301E9
:102120000822C4F2010288500E988079C006002867
:1021300009D5FFE70B9A40F20841C4F20101086893
:102140001043086008E00B9A40F20841C4F2010114
:10215000086890430860FFE70E98807980060028A1
:1021600009D5FFE70B9A40F20C41C4F2010108685F
:102170001043086008E00B9A40F20C41C4F20101E0
:10218000086890430860FFE70E9880798007002870
:1021900009D5FFE70B9A40F20441C4F20101086837
:1021A0001043086008E00B9A40F20441C4F20101B8
:1021B000086890430860FFE70E988079C00748B12F
:1021C000FFE70B9A40F20041C4F201010868104396
:1021D000086008E00B9A40F20041C4F2010108686F
:1021E00090430860FFE7FFE7FFE70D9801300D908F
:1021F00079E610B07047000082B00190ADF802108F
:1022000001988068BDF80210084204D0FFE7012061
:102210008DF8010003E000208DF80100FFE79DF834
:10222000010002B07047000040F25C60C2F20000A2
:102230000068704780B58EB00C900C9820B9FFE70D
:1022400001208DF8370043E10C9890F83D0040B92B
:10225000FFE70C99002081F83C000C9800F03CF955
:10226000FFE70C99242081F83D000C98016808686C
:1022700020F0010008600C980168086840F40040F4
:1022800008600C980168086820F40040086000F0BD
:102290004DFB0A900C98406848F2A061C0F2010121
:1022A00088420BD8FFE70A9948F28042C0F21E022A
:1022B0000020914238BF012009900AE00A9940F6B7
:1022C0000012C0F23D020020914238BF0120099067
:1022D000FFE70998012804D1FFE701208DF83700B6
:1022E000F6E00A984DF68361C4F21B31A0FB0110A1
:1022F000800C0B900C980068406820F03F000B9910
:1023000008430C99096848600C980068006A20F03E
:102310003F0008900C98406848F2A061C0F20101AB
:10232000884204D8FFE70B98013007900EE00B9825
:102330004FF49671484344F6D351C1F26201A0FBB9
:102340000101012000EB91100790FFE70898079921
:1023500008430C99096808620C980068C0694CF63B
:10236000FF71884306900C98406848F2A061C0F263
:10237000010188421FD8FFE70A9801380C99496883
:102380004900B0FBF1F001306FF31F30032803D890
:10239000FFE7042005900BE00A9801380C99496882
:1023A0004900B0FBF1F001306FF31F300590FFE7FB
:1023B000059804904CE00C98806868B9FFE70A988B
:1023C00001380C99496801EB4101B0FBF1F0013093
:1023D0006FF31F3003900DE00A9801380C9949689B
:1023E00019225143B0FBF1F00130042161F31F3099
:1023F0000390FFE70398000518B9FFE7012002905A
:1024000023E00C98806868B9FFE70A9801380C99B6
:10241000496801EB4101B0FBF1F001306FF31F306F
:1024200001900DE00A9801380C994968192251432E
:10243000B0FBF1F00130042161F31F300190FFE7A0
:10244000019840F400400290FFE702980490FFE7F3
:102450000698049908430C990968C8610C980068AB
:10246000006820F0C0000C9B1968DA691B6A1A43E7
:10247000104308600C980068806848F2FF31884378
:102480000C9A1168D36812691A43104388600C983B
:102490000068C06820F0FF000C9B19685A699B69AE
:1024A0001A431043C8600C980168086840F00100A6
:1024B00008600C99002008640C9A202182F83D10D5
:1024C0000C9908630C9981F83E008DF83700FFE7FE
:1024D0009DF837000EB080BD80B588B00790002011
:1024E00006900590049003900798006845F200411B
:1024F000C4F2000188422CD1FFE7FFE741F2180047
:10250000C4F20200016841F008010160006800F0B7
:10251000080002900298FFE7C02003901220049068
:102520000320069040F60040C4F2010003A9FFF723
:10253000D3FCFFE741F21C00C4F20200016841F441
:1025400000110160006800F4001001900198FFE79D
:10255000FFE708B080BD000040F22600C2F2000094
:10256000027840F25C61C2F2000108681044086021
:102570007047000080B542F20001C4F20201086811
:1025800040F010000860032000F096F80F2000F0E3
:1025900005F800F03BF8002080BD000080B582B057
:1025A000009040F20000C2F20000006840F22601F4
:1025B000C2F200010A784FF47A71B1FBF2F1B0FB7C
:1025C000F1F000F061FD20B1FFE701208DF8070078
:1025D00018E000980F280DD8FFE700994FF0FF3062
:1025E000002200F04FF8009840F22801C2F20001EA
:1025F000086003E001208DF8070003E000208DF85B
:102600000700FFE79DF8070002B080BD83B0FFE739
:1026100041F21800C4F20200016841F001010160BA
:10262000006800F0010002900298FFE7FFE741F226
:102630001C00C4F20200016841F080510160006892
:1026400000F0805001900198FFE7FFE70421C4F2F9
:10265000010108680090009820F0E0600090009868
:1026600040F00070009000980860FFE703B07047EA
:1026700080B582B08DF807009DF9070003F05CFB80
:1026800002B080BD80B586B08DF81700049103922A
:102690000020029003F068FB02909DF91700019062
:1026A00002980499039A01F0A5FD0146019803F0F0
:1026B00063FB06B080BD000080B582B00190019838
:1026C00003F07CFB02B080BD80B584B00290019124
:1026D000029820B9FFE701208DF80F001BE1019857
:1026E00042F20001C4F20201096801F007018842C8
:1026F00016D9FFE742F20000C4F20200016821F09F
:102700000701019A11430160006800F00700019978
:10271000884204D0FFE701208DF80F00FBE0FFE7BF
:1027200002980078800700282AD5FFE702980078F1
:102730004007002809D5FFE741F20401C4F2020175
:10274000086840F4E0600860FFE70298007800073E
:10275000002809D5FFE741F20401C4F2020108682C
:1027600040F460500860FFE741F20401C4F2020146
:10277000086820F0F000029A926810430860FFE7B2
:1027800002980078C007002860D0FFE702984068F0
:1027900001280ED1FFE741F20000C4F202000068F8
:1027A0008003002804D4FFE701208DF80F00B2E079
:1027B00021E00298406802280ED1FFE741F20000B4
:1027C000C4F2020000688001002804D4FFE7012061
:1027D0008DF80F009FE00DE041F20000C4F202000E
:1027E00000688007002804D4FFE701208DF80F005F
:1027F00091E0FFE7FFE741F20401C4F2020108683B
:1028000020F00300029A526810430860FFF70CFDA5
:102810000090FFE741F20400C4F20200006800F0FB
:102820000C0002994968B0EB810F0ED0FFE7FFF76B
:10283000FBFC0099401A41F28931884204D3FFE73A
:1028400003208DF80F0066E0E4E7FFE7019842F20D
:102850000001C4F20201096801F00701884216D2A2
:10286000FFE742F20000C4F20200016821F0070114
:10287000019A11430160006800F007000199884245
:1028800004D0FFE701208DF80F0044E0FFE7029835
:102890000078400700280CD5FFE741F20401C4F29C
:1028A0000201086820F4E060029AD26810430860D0
:1028B000FFE702980078000700280DD5FFE741F2F6
:1028C0000401C4F20201086820F46050029A1269FF
:1028D00040EAC2000860FFE700F03AF841F2040164
:1028E000C4F202010968C9B20A0948F6DC21C0F63F
:1028F0000001895CC84040F20001C2F2000108609A
:1029000040F22800C2F200000068FFF747FE0020F6
:102910008DF80F00FFE79DF80F0004B080BD0000A8
:1029200040F20000C2F200000068704780B5FFF777
:10293000F7FF41F20401C4F202010968C1F3022267
:1029400048F6EC21C0F60001895CC84080BD00005B
:1029500086B000200590049003900290019041F20F
:102960000400C4F2020000680590059800F00C0015
:102970000146009100283FD0FFE70098042804D0CA
:10298000FFE70098082806D037E041F20020C0F2A7
:102990007A00019037E00598C0F3834148F6F420AF
:1029A000C0F60000405C02909DF81600C007C0B160
:1029B000FFE741F20400C4F202000068C0F34041A6
:1029C00048F60430C0F60000405C0490029841F2E2
:1029D0000021C0F27A0148430499B0FBF1F0039062
:1029E00007E0029840F60011C0F23D014843039011
:1029F000FFE70398019006E0FFE741F20020C0F2F4
:102A00007A000190FFE7019806B0704780B586B064
:102A10000490049820B9FFE701208DF817002EE3F9
:102A200004980078C007002800F0AE80FFE741F26C
:102A30000400C4F20200006800F00C00042813D067
:102A4000FFE741F20400C4F20200006800F00C004D
:102A500008281BD1FFE741F20400C4F2020000681D
:102A6000C003002812D5FFE741F20000C4F20200C3
:102A700000688003002808D5FFE70498406820B963
:102A8000FFE701208DF81700F9E27CE0FFE70498EA
:102A90004068B0F5803F09D1FFE741F20001C4F280
:102AA0000201086840F48030086032E00498406811
:102AB00068B9FFE741F20001C4F20201086820F49E
:102AC00080300860086820F48020086020E00498C6
:102AD0004068B0F5A02F0DD1FFE741F20001C4F22C
:102AE0000201086840F480200860086840F48030E3
:102AF00008600CE041F20001C4F20201086820F411
:102B000080300860086820F480200860FFE7FFE755
:102B1000FFE7FFE704984068D0B1FFE7FFF784FBC9
:102B20000390FFE741F20000C4F202000068800356
:102B300000280CD4FFE7FFF777FB0399401A6528BC
:102B400004D3FFE703208DF8170098E2EAE719E0C5
:102B5000FFF76AFB0390FFE741F20000C4F20200B6
:102B60000068800300280CD5FFE7FFF75DFB0399A1
:102B7000401A652804D3FFE703208DF817007EE292
:102B8000EAE7FFE7FFE7FFE70498007880070028FF
:102B900040F18D80FFE741F20400C4F202000068BA
:102BA00010F00C0F13D0FFE741F20400C4F2020052
:102BB000006800F00C00082829D1FFE741F204006A
:102BC000C4F202000068C003002820D4FFE741F2ED
:102BD0000000C4F2020000688007002809D5FFE762
:102BE00004980069012804D0FFE701208DF8170040
:102BF00045E241F20001C4F20201086820F0F80049
:102C0000049A526940EAC2000860FFE74EE0049867
:102C1000006958B3FFE70021C4F242210120086097
:102C2000FFF702FB0390FFE741F20000C4F202004D
:102C30000068800700280CD4FFE7FFF7F5FA039936
:102C4000401A032804D3FFE703208DF8170016E28B
:102C5000EAE741F20001C4F20201086820F0F8003E
:102C6000049A526940EAC20008601EE00021C4F2E2
:102C7000422100200860FFF7D7FA0390FFE741F2F6
:102C80000000C4F202000068800700280CD5FFE7AE
:102C9000FFF7CAFA0399401A032804D3FFE7032079
:102CA0008DF81700EBE1EAE7FFE7FFE7FFE704989D
:102CB00000780007002848D5FFE70498806918B31A
:102CC000FFE740F28041C4F2422101200860FFF793
:102CD000ABFA0390FFE741F22400C4F2020000685F
:102CE000800700280CD4FFE7FFF79EFA0399401AEB
:102CF000032804D3FFE703208DF81700BFE1EAE7BC
:102D0000012001F0AFFA1FE040F28041C4F24221FD
:102D100000200860FFF788FA0390FFE741F22400E3
:102D2000C4F202000068800700280CD5FFE7FFF717
:102D30007BFA0399401A032804D3FFE703208DF898
:102D400017009CE1EAE7FFE7FFE7049800784007F7
:102D5000002840F1D880FFE700208DF8070041F2FD
:102D60001C00C4F202000068C000002813D4FFE772
:102D7000FFE741F21C00C4F20200016841F08051FB
:102D80000160006800F0805000900098FFE701208B
:102D90008DF80700FFE747F20000C4F2000000686A
:102DA000C005002822D4FFE747F20001C4F2000169
:102DB000086840F480700860FFF736FA0390FFE778
:102DC00047F20000C4F200000068C00500280CD4DF
:102DD000FFE7FFF729FA0399401A652804D3FFE7B4
:102DE00003208DF817004AE1EAE7FFE7FFE70498C0
:102DF000C068012809D1FFE741F22001C4F20201B5
:102E0000086840F00100086031E00498C06868B9C3
:102E1000FFE741F22001C4F20201086820F001003E
:102E20000860086820F0040008601FE00498C0688B
:102E300005280DD1FFE741F22001C4F20201086824
:102E400040F004000860086840F0010008600CE0F1
:102E500041F22001C4F20201086820F0010008607C
:102E6000086820F004000860FFE7FFE7FFE7FFE7DE
:102E70000498C068E0B1FFE7FFF7D6F90390FFE7D9
:102E800041F22000C4F202000068800700280ED43E
:102E9000FFE7FFF7C9F90399401A41F289318842E7
:102EA00004D3FFE703208DF81700E8E0E8E71BE014
:102EB000FFF7BAF90390FFE741F22000C4F20200E5
:102EC0000068800700280ED5FFE7FFF7ADF90399EA
:102ED000401A41F28931884204D3FFE703208DF87C
:102EE0001700CCE0E8E7FFE79DF80700012809D1CB
:102EF000FFE741F21C01C4F20201086820F0805093
:102F00000860FFE7FFE70498C069002800F0B3807D
:102F1000FFE741F20400C4F20200006800F00C0078
:102F2000082800F08280FFE70498C06902285CD17D
:102F3000FFE76021C4F2422100200860FFF774F926
:102F40000390FFE741F20000C4F202000068800134
:102F500000280CD5FFE7FFF767F90399401A03280B
:102F600004D3FFE703208DF8170088E0EAE7049810
:102F7000006AB0F5803F0CD1FFE741F20401C4F2D2
:102F80000201086820F40030049A92681043086037
:102F9000FFE741F20401C4F20201086820F4741052
:102FA000049B1A6A5B6A1A43104308606021C4F2EA
:102FB000422101200860FFF737F90390FFE741F253
:102FC0000000C4F202000068800100280CD4FFE772
:102FD000FFF72AF90399401A032804D3FFE70320D7
:102FE0008DF817004BE0EAE71EE06021C4F24221B1
:102FF00000200860FFF718F90390FFE741F2000096
:10300000C4F202000068800100280CD5FFE7FFF73A
:103010000BF90399401A032804D3FFE703208DF826
:1030200017002CE0EAE7FFE724E00498C0690128D4
:1030300004D1FFE701208DF8170020E041F20400E1
:10304000C4F2020000680290029800F480300499F3
:10305000096A884208D1FFE7029800F470100499C9
:10306000496A884204D0FFE701208DF8170006E086
:10307000FFE7FFE7FFE700208DF81700FFE79DF867
:10308000170006B080BD000080B582B001900198A5
:1030900002F0F6FA02B080BD81B0009001B0704736
:1030A00081B0009001B0704784B00290019100207F
:1030B0000090FFE7029890F83C00012804D1FFE758
:1030C00002208DF80F0044E00299012081F83C00B5
:1030D000FFE7FFE7009820F0FF000199C968084367
:1030E0000090009820F4407001998968084300908E
:1030F000009820F480600199496808430090009886
:1031000020F400600199096808430090009820F4B9
:1031100080500199096908430090009820F40050FC
:103120000199496908430090009820F48040019972
:10313000C969084300900098029909684864FFE74C
:103140000299002081F83C00FFE700208DF80F0075
:10315000FFE79DF80F0004B07047000085B00390B2
:103160000291FFE7039890F83C00012804D1FFE7A3
:1031700002208DF813005BE00399012081F83C00E8
:10318000FFE7FFE70399022081F83D0003980068FC
:10319000406801900398006880680090019820F0D2
:1031A000700001900298016801980843019001980D
:1031B0000399096848600398006842F60041C4F228
:1031C0000101884218D0FFE703980068B0F1804FF2
:1031D00012D0FFE70398006840F20041C4F20001FA
:1031E000884209D0FFE70398006840F60001C4F266
:1031F000000188420ED1FFE7009820F08000009087
:103200000298416800980843009000980399096863
:103210008860FFE70399012081F83D00FFE70399EB
:10322000002081F83C00FFE700208DF81300FFE745
:103230009DF8130005B0704780B582B000900098EB
:1032400020B9FFE701208DF807003FE0009890F8D3
:103250003D0040B9FFE70099002081F83C0000984C
:1032600000F038F8FFE70099022081F83D0000994E
:1032700051F8040B02F0B0FA0099012081F84600E1
:10328000FFE70099012081F83E00009981F83F0096
:10329000009981F84000009981F84100FFE7FFE7BD
:1032A0000099012081F84200009981F843000099BB
:1032B00081F84400009981F84500FFE7009901205A
:1032C00081F83D0000208DF80700FFE79DF807001A
:1032D00002B080BD80B584B003900398006842F6C8
:1032E0000041C4F20101884219D1FFE7FFE741F232
:1032F0001800C4F20200016841F400610160006836
:1033000000F4006002900298FFE71920019000226B
:103310001146FFF7B7F90198FFF7AAF9FFE704B0E4
:1033200080BD000083B00190019890F83D00012815
:1033300004D0FFE701208DF80B0047E0019902203F
:1033400081F83D0001980168C86840F00100C8603C
:103350000198006842F60041C4F20101884218D089
:10336000FFE701980068B0F1804F12D0FFE70198A5
:10337000006840F20041C4F20001884209D0FFE732
:103380000198006840F60001C4F20001884212D1A1
:10339000FFE701980068806800F00700009000983F
:1033A000062807D0FFE701980168086840F001008F
:1033B0000860FFE706E001980168086840F0010036
:1033C0000860FFE700208DF80B00FFE79DF80B0079
:1033D00003B0704780B586B00490039100208DF84B
:1033E0000B00FFE7049890F83C00012804D1FFE7A8
:1033F00002208DF81700ABE00499012081F83C0011
:10340000FFE7FFE70499022081F83D000498006877
:1034100080680190019820F077000190019820F4D5
:103420007F400190019804990968886003980068BA
:103430000090002872D0FFE7009810286ED0FFE7B8
:10344000009820286AD0FFE70098302866D0FFE770
:103450000098402855D0FFE70098502837D0FFE764
:103460000098602840D0FFE7009870280BD0FFE755
:103470000098B0F5805F05D0FFE70098B0F5005FD9
:1034800016D052E055E004980068039B5A6899688A
:10349000DB6802F041FA04980068806801900198A6
:1034A00040F077000190019804990968886040E035
:1034B00004980068039B5A689968DB6802F02CFA4C
:1034C00004980168886840F48040886031E004987E
:1034D0000068039A5168D26802F0DAFB0498006829
:1034E000502102F033FA24E004980068039A5168EE
:1034F000D26802F0F5FB04980068602102F026FA19
:1035000017E004980068039A5168D26802F0C0FB83
:1035100004980068402102F019FA0AE00498006853
:103520000399096802F012FA03E001208DF80B00FC
:10353000FFE70499012081F83D00FFE7049900208E
:1035400081F83C00FFE79DF80B008DF81700FFE7BE
:103550009DF8170006B080BD81B0009001B07047A3
:1035600080B584B0039003980068C0680290039807
:103570000068006901909DF804008007002824D5A8
:10358000FFE79DF80800800700281DD5FFE7039896
:1035900001686FF002000861039901200877039821
:1035A00000688069800720B1FFE70398FFF7D4FF28
:1035B00006E0039800F012F9039800F007FAFFE71D
:1035C000039900200877FFE7FFE79DF80400400714
:1035D000002825D5FFE79DF80800400700281ED5E4
:1035E000FFE7039801686FF0040008610399022067
:1035F000087703980068806910F4407F04D0FFE7E3
:103600000398FFF7A9FF06E0039800F0E7F8039896
:1036100000F0DCF9FFE7039900200877FFE7FFE7F8
:103620009DF804000007002824D5FFE79DF8080056
:10363000000700281DD5FFE7039801686FF0080018
:10364000086103990420087703980068C06980071F
:1036500020B1FFE70398FFF77FFF06E0039800F033
:10366000BDF8039800F0B2F9FFE70399002008774E
:10367000FFE7FFE79DF80400C006002825D5FFE717
:103680009DF80800C00600281ED5FFE703980168D2
:103690006FF010000861039908200877039800680C
:1036A000C06910F4407F04D0FFE70398FFF754FF90
:1036B00006E0039800F092F8039800F087F9FFE71E
:1036C000039900200877FFE7FFE79DF80400C00793
:1036D00078B1FFE79DF80800C00748B1FFE70398FD
:1036E00001686FF001000861039800F023FAFFE71A
:1036F000FFE79DF804000006002810D5FFE79DF8BD
:1037000008000006002809D5FFE7039801686FF05C
:10371000800008610398FFF7BFFCFFE7FFE79DF813
:1037200004004006002810D5FFE79DF80800400679
:10373000002809D5FFE7039801686FF04000086191
:10374000039800F0FBF9FFE7FFE79DF8040080060F
:10375000002810D5FFE79DF808008006002809D54D
:10376000FFE7039801686FF0200008610398FFF7F6
:1037700097FCFFE7FFE704B080BD000080B586B08E
:103780000590002004900390029001900598006835
:1037900042F60041C4F2010188421DD1FFE7FFE774
:1037A00041F21800C4F20200016841F00401016016
:1037B000006800F0040000900098FFE74FF470608C
:1037C000019002200290049040F60000C4F2010033
:1037D00001A9FEF781FBFFE706B080BD81B0009034
:1037E00001B0704780B586B004900391029200202A
:1037F0008DF80700FFE7049890F83C00012804D1F9
:10380000FFE702208DF8170089E00499012081F874
:103810003C00FFE7FFE7029800900C2800F2708060
:103820000099DFE801F0076D6D6D206D6D6D3A6DEB
:103830006D6D530004980068039902F09DF8049898
:103840000168886940F00800886104980168886907
:1038500020F004008861039802690498016888696F
:103860001043886150E004980068039902F0ECF876
:1038700004980168886940F40060886104980168D0
:10388000886920F48060886103980269049801685F
:10389000886940EA0220886136E00498006803994C
:1038A00002F03EF904980168C86940F00800C86158
:1038B00004980168C86920F00400C861039802698F
:1038C00004980168C8691043C8611DE00498006845
:1038D000039902F091F904980168C86940F4006006
:1038E000C86104980168C86920F48060C8610398C1
:1038F000026904980168C86940EA0220C86103E0CF
:1039000001208DF80700FFE7FFE70499002081F808
:103910003C00FFE79DF807008DF81700FFE79DF8D2
:10392000170006B080BD000080B582B000900098FE
:1039300020B9FFE701208DF807003FE0009890F8DC
:103940003D0040B9FFE70099002081F83C00009855
:1039500000F038F8FFE70099022081F83D00009957
:1039600051F8040B01F038FF0099012081F846005E
:10397000FFE70099012081F83E00009981F83F009F
:10398000009981F84000009981F84100FFE7FFE7C6
:103990000099012081F84200009981F843000099C4
:1039A00081F84400009981F84500FFE70099012063
:1039B00081F83D0000208DF80700FFE79DF8070023
:1039C00002B080BD81B0009001B0704781B000901E
:1039D00001B0704780B58AB008900791079828B960
:1039E000FFE7089890F83E0005901CE0079804282F
:1039F00005D1FFE7089890F83F00049010E0079881
:103A0000082805D1FFE7089890F84000039004E0EB
:103A1000089890F841000390FFE703980490FFE7AF
:103A200004980590FFE70598012804D0FFE70120DE
:103A30008DF827007AE0079828B9FFE70899022057
:103A400081F83E001EE00798042806D1FFE7089998
:103A5000022081F83F00029012E00798082806D162
:103A6000FFE70899022081F84000019005E00899DD
:103A7000022081F841000190FFE701980290FFE7E2
:103A80000298FFE7089800680799012201F028FFD3
:103A90000898006842F60041C4F20101884207D14B
:103AA000FFE708980168486C40F400404864FFE76D
:103AB0000898006842F60041C4F20101884218D01B
:103AC000FFE708980068B0F1804F12D0FFE7089830
:103AD000006840F20041C4F20001884209D0FFE7CB
:103AE0000898006840F60001C4F20001884212D133
:103AF000FFE708980068806800F0070006900698C5
:103B0000062807D0FFE708980168086840F0010020
:103B10000860FFE706E008980168086840F00100C7
:103B20000860FFE700208DF82700FFE79DF82700D9
:103B30000AB080BD81B0009001B0704781B00090A4
:103B400001B07047FFE7FEE780B594B0139040F2F4
:103B50005C20C2F2000010904FF40071FDF710FDE0
:103B60001098694600224A600A6049F2A643C0F6EE
:103B700000031146FEF778F913980078C00700B3E8
:103B8000FFE7694601200C90486016200D90086000
:103B900040F25C20C2F200000E900E220F923D23F4
:103BA0001946FDF765FEDDF830C00D990E980F9AA5
:103BB0006B46C3F804C0196043231946FDF758FE4D
:103BC00012E069460120C8601220886045204860E4
:103BD0001620086040F25C20C2F200000E223D2355
:103BE0001946FEF791F8FFE7139800788008C007A0
:103BF00060B1FFE768460A23036040F25C20C2F22E
:103C000000003C210D22FEF7EFF8FFE71398406813
:103C10004FF0864104F020FC04F04EFB034668465A
:103C20000121089141600322026040F25C20C2F24F
:103C300000000A900021FDF71BFE08990A986A46C9
:103C4000D1601221916054215160162109911160B7
:103C50000E220B924C231946FEF756F8DDF820C0D1
:103C600009990A980B9A6B46C3F804C0196055234A
:103C70001946FDF7FDFD13980078C008C00768B12C
:103C8000FFE769460A20086040F25C20C2F20000AB
:103C90004B210D220B23FEF7A7F8FFE76946012011
:103CA0000490C86012208860322048601620059079
:103CB000086040F25C20C2F2000006900E220792DB
:103CC0002E231946FEF720F8DDF810C00599069856
:103CD000079A6B46C3F804C019604F231946FDF7D5
:103CE000C7FD139800780009C00768B1FFE769466F
:103CF0000A20086040F25C20C2F200002D210D2253
:103D00000B23FEF771F8FFE71398806804F0EAF8D8
:103D100002460B4649F2B941C0F600010DF14700D9
:103D2000FCF7D6FA1398806804F0DCF84CF6CD4224
:103D3000CCF6CC424CF6CC43C3F6F07304F07BF9DE
:103D4000E8B9FFE71398806804F0CCF84FF06632CA
:103D500046F26663C3F6EE7304F074F978B9FFE7D0
:103D6000694600204860086040F25C20C2F2000012
:103D700067210E220DF14703FEF776F80FE0694642
:103D8000012048600020086040F25C20C2F2000080
:103D900067210E220DF14703FEF766F8FFE769463B
:103DA0000120086040F25C20C2F2000019210E23BD
:103DB0001A46FDF7F5FD139800784008C00760B17A
:103DC000FFE768461023036040F25C20C2F2000067
:103DD00018210D22FEF708F8FFE714B080BD00009F
:103DE00080B58CB000200B900A9009900890FFE7F6
:103DF00041F21800C4F20200016841F010010160B4
:103E0000006800F0100007900798FFE7FFE741F215
:103E10001800C4F20200016841F02001016000684E
:103E200000F0200006900698FFE7FFE741F2180037
:103E3000C4F20200016841F004010160006800F072
:103E4000040005900598FFE7FFE741F21800C4F26F
:103E50000200016841F008010160006800F00800FC
:103E600004900498FFE780200890002001900990BA
:103E7000012002900A9040F60000C4F2010008A957
:103E80000391FEF729F8019A0298039940F603433B
:103E9000089309920A9040F60040C4F20100FEF730
:103EA0001BF80CB080BD000080B582B040F2A000CD
:103EB000C2F20000019045F20041C4F2000101602D
:103EC00041F68021C0F20601416000218160C1609D
:103ED0004FF48042026141618161C1610162FEF77C
:103EE000A9F918B1FFE7FDF7CBFAFFE702B080BDF3
:103EF00080B598B0002101911791169115911491F8
:103F000013911291119110910F910E910D910C91AD
:103F10000B910A91099108910791069105910491DD
:103F2000039140F2F400C2F20000029042F6004217
:103F3000C4F201020260472242604022826040F2E5
:103F4000E732C260016141618161FFF775F918B123
:103F5000FFE7FDF795FAFFE74FF48050149040F229
:103F6000F400C2F2000014A9FFF734FA18B1FFE719
:103F7000FDF786FAFFE740F2F400C2F20000FFF717
:103F8000D3FC18B1FFE7FDF77BFAFFE700201290A2
:103F9000139040F2F400C2F2000012A9FFF7DEF81D
:103FA00018B1FFE7FDF76CFAFFE760200B900022E5
:103FB0000C920D920E920F921092119240F2F40018
:103FC000C2F200000BA9FFF70DFC18B1FFE7FDF7E7
:103FD00057FAFFE740F2F400C2F200000BA90422F6
:103FE000FFF700FC18B1FFE7FDF74AFAFFE740F2E0
:103FF000F400C2F200000BA90822FFF7F3FB18B18E
:10400000FFE7FDF73DFAFFE740F2F400C2F20000DF
:104010000BA90C22FFF7E6FB18B1FFE7FDF730FA1A
:10402000FFE70020039004900590069007904FF45E
:10403000005108910A9040F2F400C2F2000003A976
:10404000FFF732F818B1FFE7FDF71AFAFFE740F281
:10405000F400C2F20000FFF791FB18B080BD000031
:10406000FFE7FEE780B582B0019001980C30FDF7C4
:104070000FFA98B1FFE70198006A48B9FFE7019984
:1040800008780122824300F0FE0010440870FFE728
:104090000199087840F00400087005E0019908785B
:1040A00000F0FB000870FFE701982830FDF7F0F9F9
:1040B00030B1FFE70199087840F00800087005E08A
:1040C0000199087800F0F7000870FFE70198443084
:1040D000FDF7DEF930B1FFE70199087840F01000F4
:1040E000087005E00199087800F0EF000870FFE71C
:1040F00001987C30FDF7CCF988B1FFE70198D0F842
:10410000900058B9FFE701990878012222EA50028D
:1041100000F0FD0040EA42000870FFE7FFE7019869
:104120006030FDF7B5F950B3FFE70198406F80B9F3
:10413000FFE701980090806803F0D4FE002200237E
:10414000C3F6D07303F084F903F050F90099886046
:10415000FFE70198806803F0C5FE4CF6CD42CCF62F
:10416000CC424CF6CC43C3F6F87303F06BFF28B98E
:10417000FFE701994FF07D508860FFE7FFE702B04D
:1041800080BD000080B584B0039003980C3040F6E9
:104190000041C4F201010191022200230293FDF7C4
:1041A000C5F90199029B039828304FF48062FDF70E
:1041B000BDF90199029B039844300122FDF7B6F93D
:1041C0000199029B039860304FF40062FDF7AEF94D
:1041D000029B03987C3040F60001C4F2010180226A
:1041E000FDF7A4F903994FF07E50886004B080BDBC
:1041F000FFE7FEE788B0079006910592079800F068
:10420000070004900498C0F10700052803D3FFE7D6
:104210000420019004E00498C0F107000190FFE73A
:104220000198039004980430062803D8FFE7002083
:10423000009003E0049803380090FFE70098029094
:1042400006980399012202FA01F101390840029B04
:10425000984005999A40013A1140084308B07047C8
:104260007047000082B00190019840F20001C2F254
:1042700000010968C90844F6D352C1F26202A1FBE9
:104280000221890948430090FFE700BFFFE700983B
:10429000411E00910028F8D1FFE702B070470000EE
:1042A00080B584B00290029820B9FFE701208DF814
:1042B0000F0067E0029801F03FF902980C3000F01F
:1042C00089FF029880680068806A013004F048F82D
:1042D0000090029880680068C06A013004F040F8DD
:1042E0000146009804F0B8F8019040F20000C2F2D4
:1042F0000000006804F034F80146019803F0E6FE7F
:104300000299C8640298006950B1FFE70298C0683A
:1043100030B9FFE7029901F10C0000F0A1FF06E0BF
:1043200002994869086002990868C862FFE7029824
:10433000016801F01DF802980068002103F090FE6A
:1043400050B9FFE7029B03F15000996803F16C023A
:104350001B7900F0FFF811E00298806801680020E6
:1043600048630299896809688863029989680968BD
:10437000C8630299896809680864FFE700208DF81E
:104380000F00FFE79DF80F0004B080BD84B00290DD
:1043900001918DF80320029820B9FFE701208DF8E4
:1043A0000F001CE0019820B9FFE701208DF80F00F5
:1043B00015E00198029988609DF803000299A1F820
:1043C0005800019800682C3002990865019800682F
:1043D00024300299486500208DF80F00FFE79DF812
:1043E0000F0004B07047000080B58CB00A900991AE
:1043F000089207930898C0B9FFE70798017840F240
:104400005C40C2F2000050F8210006900998006854
:10441000C06A03F0A5FF0146069804F01DF803F0FA
:1044200067FF0999096848635DE0089804281BD173
:10443000FFE70798017840F25C40C2F2000050F8B4
:104440002100049009980068C06A03F089FF0146C2
:10445000049804F001F803F04BFF01460846099A5E
:104460001268916305903CE0089808281BD1FFE78B
:104470000798017840F25C40C2F2000050F8210039
:10448000029009980068C06A03F06AFF014602982A
:1044900003F0E2FF03F02CFF01460846099A126878
:1044A000D16303901AE00798017840F25C40C2F2B1
:1044B000000050F82100019009980068C06A03F0DC
:1044C0004FFF0146019803F0C7FF03F011FF0146BB
:1044D0000846099A126811640390FFE70398059053
:1044E000FFE70598FFE707990878013008700798FB
:1044F00000780A99897A884206DBFFE7079900204D
:1045000008708DF82F0003E002208DF82F00FFE7E0
:104510009DF82F000CB080BD80B582B0019001994C
:104520008868C96EFFF756FA01998868096FFFF726
:1045300051FA01998868496FFFF74CFA0199886828
:10454000896FFFF747FA01988068FEF7EBFE02B02B
:1045500080BD000080B5AEB02C902B912A928DF8D2
:10456000A7302C9820B9FFE701208DF8B7008CE325
:104570002B9820B9FFE701208DF8B70085E30020D4
:104580008DF8A6002C99C868497C30F81100ADF868
:10459000A4002C984069002840F08582FFE72C9801
:1045A000807A002800F0F980FFE7BDF8A400C0077A
:1045B00068B1FFE72C982B992A9A126840F24013B1
:1045C000C2F20003FFF710FF8DF8A6002AE02A9838
:1045D000006828B9FFE72B9801680020486320E0B5
:1045E0002A980068042806D1FFE72B98016800206C
:1045F0008863289013E02A980068082806D1FFE70E
:104600002B9801680020C863279005E02B9801686B
:10461000002008642790FFE727982890FFE7289854
:10462000FFE7FFE7BDF8A400800700280DD5FFE7EE
:104630002C982B992A9A526840F24113C2F2000337
:10464000FFF7D2FE8DF8A6002AE02A98406828B924
:10465000FFE72B9801680020486320E02A98406813
:10466000042806D1FFE72B98016800208863269074
:1046700013E02A984068082806D1FFE72B980168C4
:104680000020C863259005E02B980168002008648D
:104690002590FFE725982690FFE72698FFE7FFE79C
:1046A000BDF8A400400700280DD5FFE72C982B99F2
:1046B0002A9A926840F24213C2F20003FFF794FE76
:1046C0008DF8A6002AE02A98806828B9FFE72B9881
:1046D00001680020486320E02A988068042806D1F9
:1046E000FFE72B98016800208863249013E02A9844
:1046F0008068082806D1FFE72B9801680020C8636E
:10470000239005E02B980168002008642390FFE7C0
:1047100023982490FFE72498FFE7FFE7BDF8A40063
:10472000000700280DD5FFE72C982B992A9AD2680C
:1047300040F24313C2F20003FFF756FE8DF8A600C5
:104740002AE02A98C06828B9FFE72B980168002062
:10475000486320E02A98C068042806D1FFE72B9818
:10476000016800208863229013E02A98C068082816
:1047700006D1FFE72B9801680020C863219005E06F
:104780002B980168002008642190FFE7219822906F
:10479000FFE72298FFE7FFE784E12A98006890B9D5
:1047A000FFE7BDF8A400C00728B1FFE72B98006819
:1047B000C06A209002E000202090FFE720982B990B
:1047C0000968486347E02A980068042813D1FFE786
:1047D000BDF8A400C00728B1FFE72B980068C06AA5
:1047E0001F9002E000201F90FFE71F982B99096897
:1047F00088631E902DE02A980068082813D1FFE7EF
:10480000BDF8A400C00728B1FFE72B980068C06A74
:104810001D9002E000201D90FFE71D982B9909686C
:10482000C8631C9012E0BDF8A400C00728B1FFE7E0
:104830002B980068C06A1B9002E000201B90FFE7E5
:104840001B982B99096808641C90FFE71C981E9020
:10485000FFE71E98FFE72A98406898B9FFE7BDF880
:10486000A4008007002805D5FFE72B980068C06AE0
:104870001A9002E000201A90FFE71A982B99096815
:1048800048634AE02A984068042814D1FFE7BDF83D
:10489000A4008007002805D5FFE72B980068C06AB0
:1048A000199002E000201990FFE719982B990968E8
:1048B000886318902FE02A984068082814D1FFE7F1
:1048C000BDF8A4008007002805D5FFE72B980068F5
:1048D000C06A179002E000201790FFE717982B9905
:1048E0000968C863169013E0BDF8A400800700288B
:1048F00005D5FFE72B980068C06A159002E00020FC
:104900001590FFE715982B99096808641690FFE742
:1049100016981890FFE71898FFE72A98806898B9CA
:10492000FFE7BDF8A4004007002805D5FFE72B9856
:104930000068C06A149002E000201490FFE7149809
:104940002B99096848634AE02A988068042814D1A2
:10495000FFE7BDF8A4004007002805D5FFE72B9826
:104960000068C06A139002E000201390FFE71398DC
:104970002B990968886312902FE02A98806808288C
:1049800014D1FFE7BDF8A4004007002805D5FFE7D4
:104990002B980068C06A119002E000201190FFE798
:1049A00011982B990968C863109013E0BDF8A40012
:1049B0004007002805D5FFE72B980068C06A0F90D4
:1049C00002E000200F90FFE70F982B990968086418
:1049D0001090FFE710981290FFE71298FFE72A98CF
:1049E000C06898B9FFE7BDF8A4000007002805D506
:1049F000FFE72B980068C06A0E9002E000200E903E
:104A0000FFE70E982B99096848634AE02A98C06826
:104A1000042814D1FFE7BDF8A4000007002805D53D
:104A2000FFE72B980068C06A0D9002E000200D900F
:104A3000FFE70D982B99096888630C902FE02A985E
:104A4000C068082814D1FFE7BDF8A40000070028BB
:104A500005D5FFE72B980068C06A0B9002E00020A4
:104A60000B90FFE70B982B990968C8630A9013E035
:104A7000BDF8A4000007002805D5FFE72B980068C3
:104A8000C06A099002E000200990FFE709982B997D
:104A9000096808640A90FFE70A980C90FFE70C98F1
:104AA000FFE7FFE7A8E02A98006828B9FFE72B98FE
:104AB00001680020486320E02A980068042806D195
:104AC000FFE72B98016800208863089013E02A987C
:104AD0000068082806D1FFE72B9801680020C8630A
:104AE000079005E02B980168002008640790FFE715
:104AF00007980890FFE70898FFE72A98406828B9C8
:104B0000FFE72B9801680020486320E02A9840685E
:104B1000042806D1FFE72B980168002088630690DF
:104B200013E02A984068082806D1FFE72B9801680F
:104B30000020C863059005E02B98016800200864F8
:104B40000590FFE705980690FFE70698FFE72A988B
:104B5000806828B9FFE72B9801680020486320E0AF
:104B60002A988068042806D1FFE72B980168002066
:104B70008863049013E02A988068082806D1FFE72C
:104B80002B9801680020C863039005E02B9801680A
:104B9000002008640390FFE703980490FFE704985F
:104BA000FFE72A98C06828B9FFE72B980168002022
:104BB000486320E02A98C068042806D1FFE72B98B4
:104BC000016800208863029013E02A98C0680828D2
:104BD00006D1FFE72B9801680020C863019005E02B
:104BE0002B980168002008640190FFE7019802906B
:104BF000FFE70298FFE7FFE72C984069002840D1C3
:104C0000FFE72C98807A78B9FFE72C98007C28B1D0
:104C1000FFE72C99487C0138487404E02C99487CC3
:104C200001304874FFE723E040F23C10C2F200007C
:104C300001684B1C2C99897A9DF8A720B1FBF2F2F0
:104C400093FBF2F101FB12310160006878B9FFE7D4
:104C50002C98007C28B1FFE72C99487C01384874D7
:104C600004E02C99487C01304874FFE7FFE7FFE738
:104C70002C99CA7A4B7CB3FBF2F000FB12304874DB
:104C8000FFE700208DF8B700FFE79DF8B7002EB0D2
:104C900080BD000080B586B0049003910398002188
:104CA00003F0DEF938B1FFE703980499486100206A
:104CB0008DF8170037E040F20000C2F200000068F3
:104CC000049989680968896A0131B0FBF1F002F042
:104CD00085FE00900191039803F004F902460098C4
:104CE0000B46019923F0004302F06EFC02F032FE05
:104CF000029002980499B1F85820B0FBF2F00979BB
:104D0000B0FBF1F002900298B0F5803F04D3FFE7CA
:104D100001208DF8170006E00398049948610020EF
:104D20008DF81700FFE79DF8170006B080BD000062
:104D300080B586B0DDF820C0049003910292019303
:104D4000049820B9FFE701208DF817004FE0039881
:104D50000499086402980499C863019804998864C6
:104D60000898049948640499012008610498006B2C
:104D7000002103F075F990B1FFE70498406B002122
:104D800003F06EF958B1FFE70498806B002103F03F
:104D900067F920B1FFE7049900200861FFE7049854
:104DA000006C002103F05CF958B1FFE70498C06B78
:104DB000002103F055F920B1FFE7049900200861B4
:104DC000FFE70498406C002103F04AF958B1FFE76F
:104DD0000498806C002103F043F920B1FFE70499A7
:104DE00000200861FFE700208DF81700FFE79DF81D
:104DF000170006B080BD000080B58AB008908DF81D
:104E00001F10089820B9FFE701208DF8270096E0D1
:104E10009DF81F100120022903902BD0FFE79DF879
:104E20001F1001200429039024D0FFE79DF81F10D4
:104E30000120082903901DD0FFE79DF81F100120D5
:104E40001029039016D0FFE79DF81F10012020299C
:104E500003900FD0FFE79DF81F1001204029039019
:104E600008D0FFE79DF81F008038B0FA80F04009B5
:104E70000390FFE70398C00720B9FFE701208DF8F2
:104E800027005CE09DF81F00089981F85A000898F7
:104E900090F85A004008069000200590FFE705981A
:104EA000069988422CD2FFE7059802F080FD002287
:104EB0000023C3F6E07302F0CBFA4FF0C04242F297
:104EC000FB13C3F6F97302F015FE019002910698E8
:104ED00002F084FD024601980B46029902F074FB31
:104EE00002F044F902F082FA059A40F25C41C2F203
:104EF000000141F82200FFE7059801300590CEE758
:104F000000200490FFE704980699884213D2FFE737
:104F1000069A049BD01A40F25C41C2F2000101EBF8
:104F2000800050F8040C1A4441F82200FFE704986E
:104F300001300490E7E700208DF82700FFE79DF897
:104F400027000AB080BD000080B584B002908DF8C3
:104F500007108DF80620029820B9FFE701208DF890
:104F60000F0019E09DF8060030B1FFE702989DF8A8
:104F70000610FFF741FF04E00299002081F85A0073
:104F8000FFE79DF8070002990871029800F0D4FA33
:104F900000208DF80F00FFE79DF80F0004B080BDE2
:104FA00080B586B00490039102920193049820B9D1
:104FB000FFE701208DF817004CE00398049908637F
:104FC0000298049948630198049988630499012020
:104FD00008610498006B002103F042F890B1FFE7EC
:104FE0000498406B002103F03BF858B1FFE70498A8
:104FF000806B002103F034F820B1FFE70499002012
:105000000861FFE70498006C002103F029F858B10B
:10501000FFE70498C06B002103F022F820B1FFE7FE
:10502000049900200861FFE70498406C002103F018
:1050300017F858B1FFE70498806C002103F010F8CE
:1050400020B1FFE7049900200861FFE700208DF8F8
:105050001700FFE79DF8170006B080BD89B0DDF8A6
:1050600028C0DDF824C007900691059204930798A4
:1050700020B9FFE701208DF82300A4E0069820B9AD
:10508000FFE701208DF823009DE0059901200390A2
:10509000C9B1FFE7059901200429039013D0FFE768
:1050A00005990120082903900DD0FFE705990120FB
:1050B0000C29039007D0FFE705983C38B0FA80F040
:1050C00040090390FFE70398C00700286BD1FFE772
:1050D000049901200290C9B1FFE704990120042935
:1050E000029013D0FFE704990120082902900DD007
:1050F000FFE7049901200C29029007D0FFE70498EC
:105100003C38B0FA80F040090290FFE70298C007EF
:10511000002848D1FFE7099901200190C9B1FFE7B4
:10512000099901200429019013D0FFE70999012072
:10513000082901900DD0FFE7099901200C29019061
:1051400007D0FFE709983C38B0FA80F04009019099
:10515000FFE70198C00730BBFFE70A9901200090E4
:10516000C9B1FFE70A9901200429009013D0FFE795
:105170000A990120082900900DD0FFE70A99012023
:105180000C29009007D0FFE70A983C38B0FA80F06D
:1051900040090090FFE70098C00720B9FFE7012011
:1051A0008DF823000FE005980799C86604980799C1
:1051B00008670998079948670A980799886700203F
:1051C0008DF82300FFE79DF8230009B07047000029
:1051D0007047000080B582B00190019901204860BD
:1051E0000198406A002102F03BFF90B1FFE701986F
:1051F000806A002102F034FF58B1FFE70198C06ACD
:10520000002102F02DFF20B1FFE701990020486046
:10521000FFE70198406B002102F022FF58B1FFE741
:105220000198006B002102F01BFF20B1FFE70199FC
:1052300000204860FFE70198806B002102F010FF1A
:1052400058B1FFE70198C06B002102F009FF20B1BF
:10525000FFE7019900204860FFE702B080BD000031
:1052600080B58EB00A9009910A98806809990968FA
:1052700003F0F8F9079007980A99C96B02F00CFF40
:1052800020B9FFE70A98C06B07900BE007980A99CE
:10529000896B02F0FAFE20B9FFE70A98806B07904D
:1052A000FFE7FFE70A9800F10C0107980D910C90B9
:1052B0000D9906910C9801900868029048688A68D8
:1052C0000492C96803F0C8F8019902460298039253
:1052D00003F0C2F8039902F031FE069902460498E1
:1052E0000592096903F0B8F8059902F027FE0699BE
:1052F000496902F023FE0B900D99C86808610C986B
:105300000D99C8600B980D9948610B980890089802
:105310000A99496B02F0C0FE20B9FFE70A98406B7A
:1053200008900BE008980A99096B02F0AEFE20B9CC
:10533000FFE70A98006B0890FFE7FFE70A9880688C
:10534000002102F08DFE48B9FFE70A980C300021D9
:10535000FAF790FF08980999086007E00A980C305E
:10536000FAF7ACFF099900200860FFE70EB080BD96
:1053700080B586B00490039140F29000C2F2000024
:105380000068039902F06CFE20B1FFE700208DF861
:105390001700CDE00398002102F07EFE28B9FFE758
:1053A0000499002081F8600004E00499012081F84C
:1053B0006000FFE70398002102F052FE002840F051
:1053C000AF80FFE740F20000C2F2000000680499DD
:1053D00089680968896A0131B0FBF1F002F0FEFAD0
:1053E00000900191039802F07DFD024600980B4663
:1053F000019923F0004302F0E7F802F0ABFA0290C3
:1054000002980499B1F85820B0FBF2F00979B0FB8A
:10541000F1F00290029840080290049890F85A0027
:10542000022824D0FFE7049890F85A0004281ED0E0
:10543000FFE7049890F85A00082818D0FFE704986E
:1054400090F85A00102812D0FFE7049890F85A00FC
:1054500020280CD0FFE7049890F85A00402806D086
:10546000FFE7049890F85A00802811D1FFE70498CC
:1054700090F85A100298B0FBF1F00290049800796D
:10548000022804D1FFE7029880000290FFE7FFE7BF
:10549000BDF80A0078B9FFE7FFE702980499896828
:1054A0000968C862029804998968C860FFE704998E
:1054B0000020486633E040F20000C2F200000068BD
:1054C000049989680968896A0131B0FBF1F044F6F2
:1054D000D351C1F26201A0FB011080090290BDF816
:1054E0000A0060B9FFE7FFE7029804998968096834
:1054F000C862029804998968C860FFE70BE0FFE77B
:105500000498806801684FF6FF70C8620499896842
:10551000C860FFE7FFE7049901204866FFE703E062
:10552000049901204866FFE700208DF81700FFE787
:105530009DF8170006B080BD82B0019001980079F7
:1055400001460091012804D0FFE70098022839D0D5
:1055500080E00199042081F85B00019940F2060087
:10556000C2F20000C8650198007940F29401C2F2CD
:1055700000010978884224D0FFE7019890F85A008A
:10558000F0B1FFE740F23C11C2F2000100200860D8
:1055900040F24011C2F20001087040F24111C2F223
:1055A0000001087040F24211C2F20001087040F29E
:1055B0004311C2F200010870019981F86100FFE710
:1055C000FFE754E0019890F85A0058B9FFE70199B5
:1055D000082081F85B00019940F20E00C2F2000041
:1055E000C86536E00199042081F85B00019940F21A
:1055F0001E00C2F20000C8650198007940F29401D3
:10560000C2F200010978884222D0FFE740F23C1143
:10561000C2F2000100200860019991F85A1049086F
:1056200040F24012C2F20002117040F24111C2F287
:105630000001087040F24211C2F20001087040F20D
:105640004311C2F200010870019981F86100FFE77F
:10565000FFE70CE0019900200871019981F85B00D7
:10566000019940F20600C2F20000C865FFE7019808
:10567000007940F29401C2F20001087002B0704754
:1056800080B582B0009000980138B0F1807F03D3DC
:10569000FFE70120019019E0009801384EF2140153
:1056A000CEF2000108604FF0FF300F2100F064FBE4
:1056B0004EF21801CEF20001002008604EF21002F6
:1056C000CEF20002072111600190FFE7019802B0BD
:1056D00080BD000080B582B06420019040F244108B
:1056E000C2F200008030FEF7BDFC40F25C60C2F206
:1056F0000000006840F29801C2F200010968401AF7
:105700000199884212D9FFE740F25C60C2F20000C2
:10571000006840F29801C2F20001086040F24410B3
:10572000C2F200008030FEF70FFAFFE7FCF714FF2B
:1057300002B080BD80B590B006A800902821FAF78D
:10574000FFFD0098002305930493039302930193B4
:10575000012206924FF48031079108930A920222A7
:105760000D920E914FF4E0110F91FDF74FF918B122
:10577000FFE7FBF785FEFFE70F2001900221029172
:10578000002003904FF480620492059001A8FCF77A
:105790009BFF18B1FFE7FBF773FEFFE710B080BD7A
:1057A0007047000080B582B040F2F400C2F2000001
:1057B0000190FDF7D5FE019800680068C00600283A
:1057C00008D4FFE740F24410C2F200000430FEF7B4
:1057D00067FDFFE702B080BD83B00290019102989F
:1057E00000680090029842F60041C4F2010188422C
:1057F00015D0FFE70298B0F1804F10D0FFE7029874
:1058000040F20041C4F20001884208D0FFE702984C
:1058100040F60001C4F2000188420AD1FFE7009877
:1058200020F07000009001984168009808430090B3
:10583000FFE7029842F60041C4F20101884215D008
:10584000FFE70298B0F1804F10D0FFE7029840F2D6
:105850000041C4F20001884208D0FFE7029840F6F8
:105860000001C4F2000188420AD1FFE7009820F449
:10587000407000900198C168009808430090FFE7CD
:10588000009820F080000199496908430090009831
:1058900002990860019880680299C86201980068BE
:1058A00002998862029842F60041C4F201018842DE
:1058B00005D1FFE70198006902990863FFE70299A3
:1058C0000120486102980069C00730B1FFE70299E2
:1058D000086920F001000861FFE703B0704700008D
:1058E00084B0039002910192029800F01F01012000
:1058F00088400090009A0399086A904308620198D2
:10590000029901F01F0100FA01F20399086A10439D
:10591000086204B07047000085B0049003910292C1
:105920000193049880680090009820F47F400090D4
:1059300003980299019A41EA022101430098084321
:10594000009000980499886005B0704783B0029079
:105950000191029880680090009820F070000090FB
:1059600001980099084340F00700009000980299C0
:10597000886003B07047000085B0049003910498DC
:10598000006A01900499086A20F0010008620498F6
:1059900040680090049880690290029820F070009E
:1059A0000290029820F00300029003980168029888
:1059B00008430290019820F002000190039881684A
:1059C000019808430190049842F60041C4F2010195
:1059D00088420ED1FFE7019820F00800019003985B
:1059E000C168019808430190019820F004000190DB
:1059F000FFE7049842F60041C4F20101884213D146
:105A0000FFE7009820F480700090009820F4007068
:105A100000900398416900980843009003988169B9
:105A2000009808430090FFE70098049948600298A6
:105A3000049988610398406804994863019804991F
:105A4000086205B07047000085B004900391049887
:105A5000006A01900499086A20F010000862049816
:105A600040680090049880690290029820F4E04019
:105A70000290029820F44070029003980168029806
:105A800040EA01200290019820F020000190039844
:105A90008168019840EA01100190049842F60041A3
:105AA000C4F2010188420FD1FFE7019820F0800085
:105AB00001900398C168019840EA01100190019893
:105AC00020F040000190FFE7049842F60041C4F244
:105AD0000101884215D1FFE7009820F48060009012
