:020000040800F2
:10000000C00900208901000899210008591F000833
:100010009521000805030008293C000800000000A5
:100020000000000000000000000000001D3100087A
:10003000090300080000000009220008213600081A
:10004000A3010008A3010008A3010008A301000800
:10005000A3010008A3010008A3010008A3010008F0
:10006000A3010008A3010008A3010008A3010008E0
:10007000A3010008A3010008A3010008A3010008D0
:10008000A3010008A3010008A3010008A3010008C0
:10009000A3010008A3010008A3010008A3010008B0
:1000A000A301000899360008A3010008A301000875
:1000B000A3010008A3010008A3010008A301000890
:1000C000A3010008A3010008A3010008A301000880
:1000D000A3010008A3010008A3010008A301000870
:1000E000A3010008A3010008A301000800F002F822
:1000F00000F03AF80AA090E8000C82448344AAF188
:100100000107DA4501D100F02FF8AFF2090EBAE885
:100110000F0013F0010F18BFFB1A43F0010318473B
:10012000DC560000FC560000103A24BF78C878C1A5
:10013000FAD8520724BF30C830C144BF04680C60ED
:10014000704700000023002400250026103A28BF35
:1001500078C1FBD8520728BF30C148BF0B60704739
:100160001FB51FBD10B510BD00F095F81146FFF783
:10017000F7FF03F0BBFD00F0B3F803B4FFF7F2FFA5
:1001800003BC00F0B7F80000094880470948004761
:10019000FEE7FEE7FEE7FEE7FEE7FEE7FEE7FEE737
:1001A000FEE7FEE704480549054A064B7047000094
:1001B00095360008ED000008C0030020C0090020AB
:1001C000C0050020C00500202DE9F04104460F467F
:1001D000D4E90661304604F055FE256A294604F04C
:1001E00051FE20600121284605F01DFA86F00042EC
:1001F0000146104605F042F9C4E90105002F08BF89
:10020000BDE8F0810020E06020616061BDE8F08120
:100210000021C160016141617047000000487047E2
:10022000300000204FF0000200B513469446964679
:10023000203922BFA0E80C50A0E80C50B1F12001F9
:10024000BFF4F7AF090728BFA0E80C5048BF0CC0A7
:100250005DF804EB890028BF40F8042B08BF704705
:1002600048BF20F8022B11F0804F18BF00F8012B77
:100270007047704770477047004870473000002053
:1002800010B5FFF7CBFF006810BD10B50446FFF7AF
:10029000C5FF046010BD7546FFF7EEFFAE460500D2
:1002A0006946534620F00700854618B020B5FFF791
:1002B00079FFBDE820404FF000064FF000074FF0F7
:1002C00000084FF0000BAC46ACE8C009ACE8C00930
:1002D000ACE8C009ACE8C00921F007018D467047C1
:1002E00010B50446AFF300802046BDE81040FFF78C
:1002F00044BF000001491820ABBEFEE72600020003
:1003000070470000FFE7FEE77047000081B0EFF3A1
:10031000108072B60090FFE7FEE7000090B00F90EB
:100320000E9100200D900990FFE70E9800680D993E
:10033000C840002800F07F81FFE70D990120884028
:100340000C900E9800680C9908400B900B980C9933
:10035000884240F06C81FFE70E98406805900028C5
:1003600051D0FFE7059801283AD0FFE70598022809
:100370003FD0FFE7059803285FD0FFE705981128D5
:1003800032D0FFE70598122838D0FFE70598002102
:10039000C1F21101884236D0FFE705980021C1F271
:1003A000120188422FD0FFE705980021C1F22101F8
:1003B000884228D0FFE705980021C1F22201884237
:1003C00021D0FFE705980021C1F2310188421AD0FF
:1003D000FFE705980021C1F23201884213D02FE0D7
:1003E0000E98C06809902CE00E98C06804300990FF
:1003F00027E00E98C0680830099022E00E98C06887
:100400000C3009901DE00E98806818B9FFE70420B1
:10041000099011E00E988068012806D1FFE70820B6
:1004200009900C980F99086105E0082009900C9834
:100430000F994861FFE7FFE703E00020099000E023
:10044000FFE70B98FF2803D8FFE70F98049003E01D
:100450000F9804300490FFE7049808900B98FF2849
:1004600004D8FFE70D988000039006E00D996FF027
:100470001F0000EB81000390FFE7039807900898A6
:100480000068079A0F2191408843099991400843D9
:10049000089908600E98C079C006002840F1C6800F
:1004A000FFE7FFE741F21800C4F20200016841F0E3
:1004B00001010160006800F0010006900698FFE766
:1004C0000D9820F003000821C4F2010140580A9061
:1004D0000D9800F0030081000F2000FA01F10A9846
:1004E00088430A900F9840F60001C4F20101884247
:1004F00003D1FFE70020029026E00F9840F600416C
:10050000C4F20101884203D1FFE70120019018E005
:100510000F9841F20001C4F20101884203D1FFE7C4
:10052000022000900AE00F9941F20042C4F2010259
:100530000420914208BF03200090FFE7009801903B
:10054000FFE701980290FFE702980D9901F003017F
:10055000890000FA01F10A9808430A900A980D9957
:1005600021F003010822C4F2010288500E9880791C
:10057000C006002809D5FFE70B9A40F20841C4F2F3
:10058000010108681043086008E00B9A40F2084136
:10059000C4F20101086890430860FFE70E98807973
:1005A0008006002809D5FFE70B9A40F20C41C4F2FF
:1005B000010108681043086008E00B9A40F20C4102
:1005C000C4F20101086890430860FFE70E98807943
:1005D0008007002809D5FFE70B9A40F20441C4F2D6
:1005E000010108681043086008E00B9A40F20441DA
:1005F000C4F20101086890430860FFE70E98807913
:10060000C00748B1FFE70B9A40F20041C4F2010174
:1006100008681043086008E00B9A40F20041C4F2F9
:100620000101086890430860FFE7FFE7FFE70D98C6
:1006300001300D9079E610B07047000040F2B830FC
:10064000C2F200000068704780B58EB00C900C9824
:1006500020B9FFE701208DF8370043E10C9890F8AE
:100660003D0040B9FFE70C99002081F83C000C9850
:1006700000F03CF9FFE70C99242081F83D000C982C
:100680000168086820F0010008600C98016808689B
:1006900040F4004008600C980168086820F40040AD
:1006A000086000F04DFB0A900C98406848F2A06189
:1006B000C0F2010188420BD8FFE70A9948F2804254
:1006C000C0F21E020020914238BF012009900AE0CA
:1006D0000A9940F60012C0F23D020020914238BF54
:1006E00001200990FFE70998012804D1FFE70120C4
:1006F0008DF83700F6E00A984DF68361C4F21B319D
:10070000A0FB0110800C0B900C980068406820F052
:100710003F000B9908430C99096848600C980068E1
:10072000006A20F03F0008900C98406848F2A061F1
:10073000C0F20101884204D8FFE70B98013007900E
:100740000EE00B984FF49671484344F6D351C1F232
:100750006201A0FB0101012000EB91100790FFE76F
:100760000898079908430C99096808620C98006872
:10077000C0694CF6FF71884306900C98406848F2B7
:10078000A061C0F2010188421FD8FFE70A98013832
:100790000C9949684900B0FBF1F001306FF31F304C
:1007A000032803D8FFE7042005900BE00A980138DE
:1007B0000C9949684900B0FBF1F001306FF31F302C
:1007C0000590FFE7059804904CE00C98806868B9A4
:1007D000FFE70A9801380C99496801EB4101B0FB29
:1007E000F1F001306FF31F3003900DE00A980138EB
:1007F0000C99496819225143B0FBF1F001300421F2
:1008000061F31F300390FFE70398000518B9FFE775
:100810000120029023E00C98806868B9FFE70A98ED
:1008200001380C99496801EB4101B0FBF1F001304E
:100830006FF31F3001900DE00A9801380C99496858
:1008400019225143B0FBF1F00130042161F31F3054
:100850000190FFE7019840F400400290FFE7029802
:100860000490FFE70698049908430C990968C86149
:100870000C980068006820F0C0000C9B1968DA69C9
:100880001B6A1A43104308600C980068806848F29D
:10089000FF3188430C9A1168D36812691A431043D8
:1008A00088600C980068C06820F0FF000C9B1968F5
:1008B0005A699B691A431043C8600C98016808681C
:1008C00040F0010008600C99002008640C9A202177
:1008D00082F83D100C9908630C9981F83E008DF860
:1008E0003700FFE79DF837000EB080BD80B588B0B7
:1008F00007900020069005900490039007980068E8
:1009000045F20041C4F2000188422CD1FFE7FFE725
:1009100041F21800C4F20200016841F008010160D0
:10092000006800F0080002900298FFE7C0200390E2
:10093000122004900320069040F60040C4F201000B
:1009400003A9FFF7EBFCFFE741F21C00C4F2020031
:10095000016841F400110160006800F4001001908A
:100960000198FFE7FFE708B080BD000040F22400D7
:10097000C2F20000027840F2B831C2F20001086809
:10098000104408607047000080B542F20001C4F2D4
:100990000201086840F010000860032000F096F89B
:1009A0000F2000F005F800F03BF8002080BD0000AB
:1009B00080B582B0009040F20000C2F200000068F2
:1009C00040F22401C2F200010A784FF47A71B1FBBF
:1009D000F2F1B0FBF1F000F061FD20B1FFE7012082
:1009E0008DF8070018E000980F280DD8FFE7009950
:1009F0004FF0FF30002200F04FF8009840F228013D
:100A0000C2F20001086003E001208DF8070003E056
:100A100000208DF80700FFE79DF8070002B080BDB9
:100A200083B0FFE741F21800C4F20200016841F010
:100A300001010160006800F0010002900298FFE7E8
:100A4000FFE741F21C00C4F20200016841F080514E
:100A50000160006800F0805001900198FFE7FFE717
:100A60000421C4F2010108680090009820F0E060C1
:100A70000090009840F00070009000980860FFE738
:100A800003B0704780B582B08DF807009DF907006C
:100A900003F0CCF802B080BD80B586B08DF81700A9
:100AA000049103920020029003F0D8F802909DF97F
:100AB0001700019002980499039A01F06FFB014618
:100AC000019803F0D3F806B080BD000080B582B075
:100AD0000190019803F0ECF802B080BD80B584B0BD
:100AE00002900191029820B9FFE701208DF80F00D4
:100AF0001BE1019842F20001C4F20201096801F011
:100B00000701884216D9FFE742F20000C4F2020052
:100B1000016821F00701019A11430160006800F0AB
:100B200007000199884204D0FFE701208DF80F00EB
:100B3000FBE0FFE702980078800700282AD5FFE74E
:100B4000029800784007002809D5FFE741F2040128
:100B5000C4F20201086840F4E0600860FFE7029810
:100B600000780007002809D5FFE741F20401C4F22C
:100B70000201086840F460500860FFE741F2040198
:100B8000C4F20201086820F0F000029A9268104353
:100B90000860FFE702980078C007002860D0FFE7F0
:100BA0000298406801280ED1FFE741F20000C4F22C
:100BB000020000688003002804D4FFE701208DF8BC
:100BC0000F00B2E021E00298406802280ED1FFE752
:100BD00041F20000C4F2020000688001002804D441
:100BE000FFE701208DF80F009FE00DE041F20000CB
:100BF000C4F2020000688007002804D4FFE7012047
:100C00008DF80F0091E0FFE7FFE741F20401C4F225
:100C10000201086820F00300029A5268104308603D
:100C2000FFF70CFD0090FFE741F20400C4F2020060
:100C3000006800F00C0002994968B0EB810F0ED0FB
:100C4000FFE7FFF7FBFC0099401A41F28931884227
:100C500004D3FFE703208DF80F0066E0E4E7FFE729
:100C6000019842F20001C4F20201096801F0070193
:100C7000884216D2FFE742F20000C4F20200016887
:100C800021F00701019A11430160006800F007009C
:100C90000199884204D0FFE701208DF80F0044E05D
:100CA000FFE702980078400700280CD5FFE741F2E3
:100CB0000401C4F20201086820F4E060029AD268DC
:100CC00010430860FFE702980078000700280DD560
:100CD000FFE741F20401C4F20201086820F4605009
:100CE000029A126940EAC2000860FFE700F03AF891
:100CF00041F20401C4F202010968C9B20A0945F2CD
:100D0000D071C0F60001895CC84040F20001C2F217
:100D10000001086040F22800C2F200000068FFF7FE
:100D200047FE00208DF80F00FFE79DF80F0004B08C
:100D300080BD000040F20000C2F200000068704771
:100D400080B5FFF7F7FF41F20401C4F20201096820
:100D5000C1F3022245F2E071C0F60001895CC8408F
:100D600080BD000086B000200590049003900290A2
:100D7000019041F20400C4F2020000680590059859
:100D800000F00C000146009100283FD0FFE70098DA
:100D9000042804D0FFE70098082806D037E041F285
:100DA0000020C0F27A00019037E00598C0F383413B
:100DB00045F2E870C0F60000405C02909DF8160015
:100DC000C007C0B1FFE741F20400C4F202000068AE
:100DD000C0F3404145F2F870C0F60000405C04905A
:100DE000029841F20021C0F27A0148430499B0FB15
:100DF000F1F0039007E0029840F60011C0F23D01C7
:100E000048430390FFE70398019006E0FFE741F2B3
:100E10000020C0F27A000190FFE7019806B0704709
:100E200080B586B00490049820B9FFE701208DF8C2
:100E300017002EE304980078C007002800F0AE8069
:100E4000FFE741F20400C4F20200006800F00C0069
:100E5000042813D0FFE741F20400C4F20200006846
:100E600000F00C0008281BD1FFE741F20400C4F297
:100E700002000068C003002812D5FFE741F200001D
:100E8000C4F2020000688003002808D5FFE7049838
:100E9000406820B9FFE701208DF81700F9E27CE0F7
:100EA000FFE704984068B0F5803F09D1FFE741F2C1
:100EB0000001C4F20201086840F48030086032E0AA
:100EC0000498406868B9FFE741F20001C4F20201EA
:100ED000086820F480300860086820F480200860EA
:100EE00020E004984068B0F5A02F0DD1FFE741F253
:100EF0000001C4F20201086840F48020086008681C
:100F000040F4803008600CE041F20001C4F20201BC
:100F1000086820F480300860086820F480200860A9
:100F2000FFE7FFE7FFE7FFE704984068D0B1FFE77E
:100F3000FFF784FB0390FFE741F20000C4F20200D8
:100F40000068800300280CD4FFE7FFF777FB0399C4
:100F5000401A652804D3FFE703208DF8170098E2B4
:100F6000EAE719E0FFF76AFB0390FFE741F20000B0
:100F7000C4F202000068800300280CD5FFE7FFF7E9
:100F80005DFB0399401A652804D3FFE703208DF821
:100F900017007EE2EAE7FFE7FFE7FFE70498007843
:100FA0008007002840F18D80FFE741F20400C4F281
:100FB0000200006810F00C0F13D0FFE741F20400AC
:100FC000C4F20200006800F00C00082829D1FFE7F5
:100FD00041F20400C4F202000068C003002820D4DB
:100FE000FFE741F20000C4F2020000688007002819
:100FF00009D5FFE704980069012804D0FFE7012024
:101000008DF8170045E241F20001C4F202010868C0
:1010100020F0F800049A526940EAC2000860FFE735
:101020004EE00498006958B3FFE70021C4F2422162
:1010300001200860FFF702FB0390FFE741F2000088
:10104000C4F202000068800700280CD4FFE7FFF715
:10105000F5FA0399401A032804D3FFE703208DF81B
:10106000170016E2EAE741F20001C4F20201086843
:1010700020F0F800049A526940EAC20008601EE0BD
:101080000021C4F2422100200860FFF7D7FA039044
:10109000FFE741F20000C4F2020000688007002868
:1010A0000CD5FFE7FFF7CAFA0399401A032804D3C7
:1010B000FFE703208DF81700EBE1EAE7FFE7FFE722
:1010C000FFE7049800780007002848D5FFE7049858
:1010D000806918B3FFE740F28041C4F24221012049
:1010E0000860FFF7ABFA0390FFE741F22400C4F277
:1010F00002000068800700280CD4FFE7FFF79EFA83
:101100000399401A032804D3FFE703208DF8170042
:10111000BFE1EAE7012001F079F81FE040F28041E9
:10112000C4F2422100200860FFF788FA0390FFE72D
:1011300041F22400C4F202000068800700280CD5A8
:10114000FFE7FFF77BFA0399401A032804D3FFE770
:1011500003208DF817009CE1EAE7FFE7FFE704981A
:1011600000784007002840F1D880FFE700208DF884
:10117000070041F21C00C4F202000068C000002811
:1011800013D4FFE7FFE741F21C00C4F2020001683C
:1011900041F080510160006800F08050009000989C
:1011A000FFE701208DF80700FFE747F20000C4F2D7
:1011B00000000068C005002822D4FFE747F20001C4
:1011C000C4F20001086840F480700860FFF736FA46
:1011D0000390FFE747F20000C4F200000068C0057A
:1011E00000280CD4FFE7FFF729FA0399401A652875
:1011F00004D3FFE703208DF817004AE1EAE7FFE791
:10120000FFE70498C068012809D1FFE741F22001F7
:10121000C4F20201086840F00100086031E004985F
:10122000C06868B9FFE741F22001C4F20201086812
:1012300020F001000860086820F0040008601FE04A
:101240000498C06805280DD1FFE741F22001C4F2DF
:101250000201086840F004000860086840F00100DE
:1012600008600CE041F22001C4F20201086820F09D
:1012700001000860086820F004000860FFE7FFE74D
:10128000FFE7FFE70498C068E0B1FFE7FFF7D6F992
:101290000390FFE741F22000C4F2020000688007DB
:1012A00000280ED4FFE7FFF7C9F90399401A41F26D
:1012B0008931884204D3FFE703208DF81700E8E066
:1012C000E8E71BE0FFF7BAF90390FFE741F22000DF
:1012D000C4F202000068800700280ED5FFE7FFF780
:1012E000ADF90399401A41F28931884204D3FFE7EE
:1012F00003208DF81700CCE0E8E7FFE79DF8070032
:10130000012809D1FFE741F21C01C4F2020108687B
:1013100020F080500860FFE7FFE70498C0690028CC
:1013200000F0B380FFE741F20400C4F2020000685D
:1013300000F00C00082800F08280FFE70498C069E4
:1013400002285CD1FFE76021C4F24221002008603E
:10135000FFF774F90390FFE741F20000C4F20200C6
:101360000068800100280CD5FFE7FFF767F90399B3
:10137000401A032804D3FFE703208DF8170088E004
:10138000EAE70498006AB0F5803F0CD1FFE741F22C
:101390000401C4F20201086820F40030049A926843
:1013A00010430860FFE741F20401C4F2020108683B
:1013B00020F47410049B1A6A5B6A1A431043086095
:1013C0006021C4F2422101200860FFF737F9039041
:1013D000FFE741F20000C4F202000068800100282B
:1013E0000CD4FFE7FFF72AF90399401A032804D326
:1013F000FFE703208DF817004BE0EAE71EE06021CD
:10140000C4F2422100200860FFF718F90390FFE7BB
:1014100041F20000C4F202000068800100280CD5EF
:10142000FFE7FFF70BF90399401A032804D3FFE7FE
:1014300003208DF817002CE0EAE7FFE724E004988A
:10144000C069012804D1FFE701208DF8170020E0D2
:1014500041F20400C4F2020000680290029800F415
:1014600080300499096A884208D1FFE7029800F4A5
:1014700070100499496A884204D0FFE701208DF872
:10148000170006E0FFE7FFE7FFE700208DF81700F1
:10149000FFE79DF8170006B080BD000080B582B060
:1014A0000190019802F092F802B080BD81B00090E6
:1014B00001B0704781B0009001B0704784B00290D5
:1014C000019100200090FFE7029890F83C0001286D
:1014D00004D1FFE702208DF80F0044E002990120BB
:1014E00081F83C00FFE7FFE7009820F0FF0001993A
:1014F000C96808430090009820F4407001998968F9
:1015000008430090009820F48060019949680843DE
:101510000090009820F40060019909680843009049
:10152000009820F4805001990969084300900098C0
:1015300020F400500199496908430090009820F474
:1015400080400199C9690843009000980299096890
:101550004864FFE70299002081F83C00FFE7002083
:101560008DF80F00FFE79DF80F0004B070470000F2
:1015700085B003900291FFE7039890F83C000128A2
:1015800004D1FFE702208DF813005BE003990120EE
:1015900081F83C00FFE7FFE70399022081F83D0056
:1015A0000398006840680190039800688068009084
:1015B000019820F07000019002980168019808439A
:1015C000019001980399096848600398006842F601
:1015D0000041C4F20101884218D0FFE70398006877
:1015E000B0F1804F12D0FFE70398006840F200414D
:1015F000C4F20001884209D0FFE70398006840F672
:101600000001C4F2000188420ED1FFE7009820F0EB
:10161000800000900298416800980843009000986C
:10162000039909688860FFE70399012081F83D006C
:10163000FFE70399002081F83C00FFE700208DF8C8
:101640001300FFE79DF8130005B0704780B582B026
:101650000090009820B9FFE701208DF807003FE0D7
:10166000009890F83D0040B9FFE70099002081F80C
:101670003C00009800F038F8FFE70099022081F85C
:101680003D00009951F8040B02F020F80099012068
:1016900081F84600FFE70099012081F83E0000999B
:1016A00081F83F00009981F84000009981F84100DD
:1016B000FFE7FFE70099012081F84200009981F8D7
:1016C0004300009981F84400009981F84500FFE744
:1016D0000099012081F83D0000208DF80700FFE708
:1016E0009DF8070002B080BD80B584B003900398D8
:1016F000006842F60041C4F20101884219D1FFE7B7
:10170000FFE741F21800C4F20200016841F40061F1
:101710000160006800F4006002900298FFE7192061
:10172000019000221146FFF7B7F90198FFF7AAF9D7
:10173000FFE704B080BD000083B00190019890F8ED
:101740003D00012804D0FFE701208DF80B0047E0A1
:101750000199022081F83D0001980168C86840F0B5
:101760000100C8600198006842F60041C4F201011E
:10177000884218D0FFE701980068B0F1804F12D07E
:10178000FFE70198006840F20041C4F2000188427E
:1017900009D0FFE70198006840F60001C4F200019B
:1017A000884212D1FFE701980068806800F00700C6
:1017B00000900098062807D0FFE7019801680868A4
:1017C00040F001000860FFE706E001980168086842
:1017D00040F001000860FFE700208DF80B00FFE7F4
:1017E0009DF80B0003B0704780B586B0049003915C
:1017F00000208DF80B00FFE7049890F83C000128CA
:1018000004D1FFE702208DF81700ABE00499012016
:1018100081F83C00FFE7FFE70499022081F83D00D2
:101820000498006880680190019820F0770001908A
:10183000019820F47F40019001980499096888601C
:10184000039800680090002872D0FFE700981028E5
:101850006ED0FFE7009820286AD0FFE70098302874
:1018600066D0FFE70098402855D0FFE70098502841
:1018700037D0FFE70098602840D0FFE70098702835
:101880000BD0FFE70098B0F5805F05D0FFE7009828
:10189000B0F5005F16D052E055E004980068039B55
:1018A0005A689968DB6801F0B1FF049800688068A5
:1018B0000190019840F0770001900198049909681F
:1018C000886040E004980068039B5A689968DB6868
:1018D00001F09CFF04980168886840F480408860AB
:1018E00031E004980068039A5168D26802F04AF91E
:1018F00004980068502101F0A3FF24E004980068D8
:10190000039A5168D26802F065F904980068602172
:1019100001F096FF17E004980068039A5168D268B6
:1019200002F030F904980068402101F089FF0AE0D4
:10193000049800680399096801F082FF03E0012020
:101940008DF80B00FFE70499012081F83D00FFE7C7
:101950000499002081F83C00FFE79DF80B008DF80A
:101960001700FFE79DF8170006B080BD81B000901A
:1019700001B0704780B584B0039003980068C068D8
:10198000029003980068006901909DF804008007A8
:10199000002824D5FFE79DF80800800700281DD502
:1019A000FFE7039801686FF00200086103990120C6
:1019B0000877039800688069800720B1FFE70398E3
:1019C000FFF7D4FF06E0039800F012F9039800F047
:1019D00007FAFFE7039900200877FFE7FFE79DF884
:1019E00004004007002825D5FFE79DF808004007C0
:1019F00000281ED5FFE7039801686FF00400086116
:101A000003990220087703980068806910F4407FEA
:101A100004D0FFE70398FFF7A9FF06E0039800F062
:101A2000E7F8039800F0DCF9FFE703990020087756
:101A3000FFE7FFE79DF804000007002824D5FFE733
:101A40009DF80800000700281DD5FFE703980168EE
:101A50006FF0080008610399042008770398006874
:101A6000C069800720B1FFE70398FFF77FFF06E01A
:101A7000039800F0BDF8039800F0B2F9FFE703996E
:101A800000200877FFE7FFE79DF80400C006002864
:101A900025D5FFE79DF80800C00600281ED5FFE702
:101AA000039801686FF01000086103990820087717
:101AB00003980068C06910F4407F04D0FFE70398E2
:101AC000FFF754FF06E0039800F092F8039800F047
:101AD00087F9FFE7039900200877FFE7FFE79DF804
:101AE0000400C00778B1FFE79DF80800C00748B1BF
:101AF000FFE7039801686FF001000861039800F0A8
:101B000023FAFFE7FFE79DF804000006002810D540
:101B1000FFE79DF808000006002809D5FFE70398B5
:101B200001686FF0800008610398FFF7BFFCFFE7D2
:101B3000FFE79DF804004006002810D5FFE79DF858
:101B400008004006002809D5FFE7039801686FF0F8
:101B500040000861039800F0FBF9FFE7FFE79DF8FC
:101B600004008006002810D5FFE79DF808008006D5
:101B7000002809D5FFE7039801686FF0200008618D
:101B80000398FFF797FCFFE7FFE704B080BD000074
:101B900080B586B0059000200490039002900190DB
:101BA0000598006842F60041C4F2010188421DD147
:101BB000FFE7FFE741F21800C4F20200016841F0BC
:101BC00004010160006800F0040000900098FFE745
:101BD0004FF47060019002200290049040F60000E3
:101BE000C4F2010001A9FEF799FBFFE706B080BD32
:101BF00081B0009001B0704780B586B00490039129
:101C0000029200208DF80700FFE7049890F83C004E
:101C1000012804D1FFE702208DF8170089E004991C
:101C2000012081F83C00FFE7FFE7029800900C28B4
:101C300000F270800099DFE801F0076D6D6D206D96
:101C40006D6D3A6D6D6D530004980068039901F055
:101C50000DFE04980168886940F0080088610498C6
:101C60000168886920F0040088610398026904987B
:101C7000016888691043886150E0049800680399FE
:101C800001F05CFE04980168886940F40060886196
:101C900004980168886920F480608861039802696B
:101CA00004980168886940EA0220886136E0049857
:101CB0000068039901F0AEFE04980168C86940F01D
:101CC0000800C86104980168C86920F00400C86170
:101CD0000398026904980168C8691043C8611DE04F
:101CE00004980068039901F001FF04980168C8692D
:101CF00040F40060C86104980168C86920F48060FD
:101D0000C8610398026904980168C86940EA022022
:101D1000C86103E001208DF80700FFE7FFE70499A1
:101D2000002081F83C00FFE79DF807008DF81700C0
:101D3000FFE79DF8170006B080BD000080B582B0B7
:101D40000090009820B9FFE701208DF807003FE0E0
:101D5000009890F83D0040B9FFE70099002081F815
:101D60003C00009800F038F8FFE70099022081F865
:101D70003D00009951F8040B01F0A8FC00990120E6
:101D800081F84600FFE70099012081F83E000099A4
:101D900081F83F00009981F84000009981F84100E6
:101DA000FFE7FFE70099012081F84200009981F8E0
:101DB0004300009981F84400009981F84500FFE74D
:101DC0000099012081F83D0000208DF80700FFE711
:101DD0009DF8070002B080BD81B0009001B070474F
:101DE00081B0009001B0704780B58AB0089007912B
:101DF000079828B9FFE7089890F83E0005901CE086
:101E00000798042805D1FFE7089890F83F00049050
:101E100010E00798082805D1FFE7089890F84000DF
:101E2000039004E0089890F841000390FFE70398BE
:101E30000490FFE704980590FFE70598012804D077
:101E4000FFE701208DF827007AE0079828B9FFE71F
:101E50000899022081F83E001EE00798042806D168
:101E6000FFE70899022081F83F00029012E00798EE
:101E7000082806D1FFE70899022081F84000019068
:101E800005E00899022081F841000190FFE70198E0
:101E90000290FFE70298FFE708980068079901227F
:101EA00001F098FC0898006842F60041C4F2010174
:101EB000884207D1FFE708980168486C40F4004069
:101EC0004864FFE70898006842F60041C4F2010147
:101ED000884218D0FFE708980068B0F1804F12D010
:101EE000FFE70898006840F20041C4F20001884210
:101EF00009D0FFE70898006840F60001C4F200012D
:101F0000884212D1FFE708980068806800F0070057
:101F100006900698062807D0FFE708980168086829
:101F200040F001000860FFE706E0089801680868D3
:101F300040F001000860FFE700208DF82700FFE770
:101F40009DF827000AB080BD81B0009001B07047B5
:101F500081B0009001B07047FFE7FEE784B0FFE773
:101F600041F21800C4F20200016841F01001016062
:101F7000006800F0100003900398FFE7FFE741F2CC
:101F80001800C4F20200016841F0200101600068FD
:101F900000F0200002900298FFE7FFE741F21800EE
:101FA000C4F20200016841F004010160006800F021
:101FB000040001900198FFE7FFE741F21800C4F226
:101FC0000200016841F008010160006800F00800AB
:101FD00000900098FFE704B07047000080B582B021
:101FE00040F29C00C2F20000019045F20041C4F2B0
:101FF0000001016041F68021C0F20601416000212C
:102000008160C1604FF48042026141618161C161C0
:102010000162FEF719FB18B1FFE7FEF777F9FFE75A
:1020200002B080BD80B598B0002101911791169142
:102030001591149113911291119110910F910E918C
:102040000D910C910B910A910991089107910691BC
:1020500005910491039140F2F000C2F20000029059
:1020600042F60042C4F2010202604722426040226E
:10207000826040F2E732C260016141618161FFF735
:10208000E5FA18B1FFE7FEF741F9FFE74FF480509A
:10209000149040F2F000C2F2000014A9FFF7A4FB74
:1020A00018B1FFE7FEF732F9FFE740F2F000C2F2A5
:1020B0000000FFF743FE18B1FFE7FEF727F9FFE73F
:1020C00000201290139040F2F000C2F2000012A91A
:1020D000FFF74EFA18B1FFE7FEF718F9FFE76020A7
:1020E0000B9000220C920D920E920F921092119270
:1020F00040F2F000C2F200000BA9FFF77DFD18B11D
:10210000FFE7FEF703F9FFE740F2F000C2F200003C
:102110000BA90422FFF770FD18B1FFE7FEF7F6F8F0
:10212000FFE740F2F000C2F200000BA90822FFF71F
:1021300063FD18B1FFE7FEF7E9F8FFE740F2F000B2
:10214000C2F200000BA90C22FFF756FD18B1FFE701
:10215000FEF7DCF8FFE7002003900490059006905E
:1021600007904FF4005108910A9040F2F000C2F23B
:10217000000003A9FFF7A2F918B1FFE7FEF7C6F8C0
:10218000FFE740F2F000C2F20000FFF701FD18B0D7
:1021900080BD0000FFE7FEE7FFE7FEE788B007909D
:1021A00006910592079800F0070004900498C0F18A
:1021B0000700052803D3FFE70420019004E00498FA
:1021C000C0F107000190FFE70198039004980430E4
:1021D000062803D8FFE70020009003E004980338A6
:1021E0000090FFE70098029006980399012202FAF6
:1021F00001F101390840029B984005999A40013A43
:102200001140084308B070477047000082B0019049
:10221000019840F20001C2F200010968C90844F6C1
:10222000D352C1F26202A1FB022189094843009006
:10223000FFE700BFFFE70098411E00910028F8D19A
:10224000FFE702B07047000080B584B002900298AA
:1022500020B9FFE701208DF80F0063E0029801F03C
:1022600011F902980C3000F05BFF0298806800685A
:10227000806A013002F0BAFF00900298806800681E
:10228000C06A013002F0B2FF0146009803F02AF85C
:10229000019040F20000C2F20000006802F0A6FFC8
:1022A0000146019802F08CFE029988640298C06889
:1022B00030B1FFE7029901F10C0000F077FF06E072
:1022C000029908690860029908688862FFE7029825
:1022D000016800F0F3FF02980068002102F03AFE66
:1022E00050B9FFE7029B03F14C00996803F16802C3
:1022F0001B7900F009F911E002988068016800205C
:10230000486302998968096888630299896809683D
:10231000C8630299896809680864FFE700208DF89E
:102320000F00FFE79DF80F0004B080BD80B584B0BA
:10233000029001918DF803208DF80230029820B9A7
:10234000FFE701208DF80F0023E0019820B9FFE797
:1023500001208DF80F001CE00198029988609DF81B
:102360000300029908719DF802000299A1F8540037
:10237000019800682C300299C864019800682430E4
:1023800002990865029801F07DF800208DF80F0091
:10239000FFE79DF80F0004B080BD000080B58CB051
:1023A0000A900991089207930898C0B9FFE7079827
:1023B000017840F24010C2F2000050F8210006906F
:1023C00009980068C06A02F011FF0146069802F001
:1023D00089FF02F0EBFE0999096848635DE00898FF
:1023E00004281BD1FFE70798017840F24010C2F2A1
:1023F000000050F82100049009980068C06A02F0BB
:10240000F5FE0146049802F06DFF02F0CFFE014692
:102410000846099A1268916305903CE008980828DC
:102420001BD1FFE70798017840F24010C2F200008C
:1024300050F82100029009980068C06A02F0D6FEA8
:102440000146029802F04EFF02F0B0FE0146084637
:10245000099A1268D16303901AE00798017840F254
:102460004010C2F2000050F8210001900998006865
:10247000C06A02F0BBFE0146019802F033FF02F091
:1024800095FE01460846099A126811640390FFE719
:1024900003980590FFE70598FFE707990878013052
:1024A0000870079800780A99897A884206DBFFE766
:1024B0000799002008708DF82F0003E002208DF8A6
:1024C0002F00FFE79DF82F000CB080BD80B582B0D3
:1024D000019001998868896EFFF786FC01998868E8
:1024E000C96EFFF781FC01998868096FFFF77CFCD2
:1024F00001998868496FFFF777FC01988068FFF7BA
:102500001BF902B080BD000080B5AEB02C902B91BD
:102510002A928DF8A7302C9820B9FFE701208DF87A
:10252000B7008CE32B9820B9FFE701208DF8B700A6
:1025300085E300208DF8A6002C99C868497C30F806
:102540001100ADF8A4002C984069002840F0858265
:10255000FFE72C98807A002800F0F980FFE7BDF8AB
:10256000A400C00768B1FFE72C982B992A9A12683B
:1025700040F23C13C2F20003FFF710FF8DF8A600F3
:102580002AE02A98006828B9FFE72B980168002004
:10259000486320E02A980068042806D1FFE72B98BA
:1025A000016800208863289013E02A9800680828B2
:1025B00006D1FFE72B9801680020C863279005E04B
:1025C0002B980168002008642790FFE7279828903F
:1025D000FFE72898FFE7FFE7BDF8A4008007002881
:1025E0000DD5FFE72C982B992A9A526840F23D139B
:1025F000C2F20003FFF7D2FE8DF8A6002AE02A9867
:10260000406828B9FFE72B9801680020486320E064
:102610002A984068042806D1FFE72B98016800201B
:102620008863269013E02A984068082806D1FFE7BF
:102630002B9801680020C863259005E02B9801685D
:10264000002008642590FFE725982690FFE726984C
:10265000FFE7FFE7BDF8A400400700280DD5FFE71E
:102660002C982B992A9A926840F23E13C2F20003EA
:10267000FFF794FE8DF8A6002AE02A98806828B912
:10268000FFE72B9801680020486320E02A988068C3
:10269000042806D1FFE72B98016800208863249066
:1026A00013E02A988068082806D1FFE72B98016874
:1026B0000020C863239005E02B980168002008647F
:1026C0002390FFE723982490FFE72498FFE7FFE794
:1026D000BDF8A400000700280DD5FFE72C982B9922
:1026E0002A9AD26840F23F13C2F20003FFF756FE67
:1026F0008DF8A6002AE02A98C06828B9FFE72B9831
:1027000001680020486320E02A98C068042806D1A8
:10271000FFE72B98016800208863229013E02A9835
:10272000C068082806D1FFE72B9801680020C8631D
:10273000219005E02B980168002008642190FFE7B4
:1027400021982290FFE72298FFE7FFE784E12A988B
:10275000006890B9FFE7BDF8A400C00728B1FFE703
:102760002B980068C06A209002E000202090FFE7CC
:1027700020982B990968486347E02A980068042844
:1027800013D1FFE7BDF8A400C00728B1FFE72B98DD
:102790000068C06A1F9002E000201F90FFE71F98AA
:1027A0002B99096888631E902DE02A9800680828F4
:1027B00013D1FFE7BDF8A400C00728B1FFE72B98AD
:1027C0000068C06A1D9002E000201D90FFE71D9880
:1027D0002B990968C8631C9012E0BDF8A400C007DB
:1027E00028B1FFE72B980068C06A1B9002E0002028
:1027F0001B90FFE71B982B99096808641C90FFE762
:102800001C981E90FFE71E98FFE72A98406898B929
:10281000FFE7BDF8A4008007002805D5FFE72B9847
:102820000068C06A1A9002E000201A90FFE71A9828
:102830002B99096848634AE02A984068042814D113
:10284000FFE7BDF8A4008007002805D5FFE72B9817
:102850000068C06A199002E000201990FFE71998FB
:102860002B990968886318902FE02A9840680828F7
:1028700014D1FFE7BDF8A4008007002805D5FFE7C5
:102880002B980068C06A179002E000201790FFE7BD
:1028900017982B990968C863169013E0BDF8A40037
:1028A0008007002805D5FFE72B980068C06A1590BF
:1028B00002E000201590FFE715982B99096808643D
:1028C0001690FFE716981890FFE71898FFE72A98E8
:1028D000806898B9FFE7BDF8A4004007002805D537
:1028E000FFE72B980068C06A149002E00020149063
:1028F000FFE714982B99096848634AE02A98806892
:10290000042814D1FFE7BDF8A4004007002805D52E
:10291000FFE72B980068C06A139002E00020139034
:10292000FFE713982B990968886312902FE02A9883
:102930008068082814D1FFE7BDF8A40040070028EC
:1029400005D5FFE72B980068C06A119002E00020CF
:102950001190FFE711982B990968C863109013E054
:10296000BDF8A4004007002805D5FFE72B980068B4
:10297000C06A0F9002E000200F90FFE70F982B999C
:10298000096808641090FFE710981290FFE712980A
:10299000FFE72A98C06898B9FFE7BDF8A4000007D0
:1029A000002805D5FFE72B980068C06A0E9002E06A
:1029B00000200E90FFE70E982B99096848634AE0C3
:1029C0002A98C068042814D1FFE7BDF8A4000007C6
:1029D000002805D5FFE72B980068C06A0D9002E03B
:1029E00000200D90FFE70D982B99096888630C90E3
:1029F0002FE02A98C068082814D1FFE7BDF8A4008A
:102A00000007002805D5FFE72B980068C06A0B90E7
:102A100002E000200B90FFE70B982B990968C86330
:102A20000A9013E0BDF8A4000007002805D5FFE7D1
:102A30002B980068C06A099002E000200990FFE727
:102A400009982B99096808640A90FFE70A980C9086
:102A5000FFE70C98FFE7FFE7A8E02A98006828B98D
:102A6000FFE72B9801680020486320E02A9800685F
:102A7000042806D1FFE72B9801680020886308909E
:102A800013E02A980068082806D1FFE72B98016810
:102A90000020C863079005E02B98016800200864B7
:102AA0000790FFE707980890FFE70898FFE72A9844
:102AB000406828B9FFE72B9801680020486320E0B0
:102AC0002A984068042806D1FFE72B980168002067
:102AD0008863069013E02A984068082806D1FFE72B
:102AE0002B9801680020C863059005E02B980168C9
:102AF000002008640590FFE705980690FFE7069818
:102B0000FFE72A98806828B9FFE72B980168002022
:102B1000486320E02A988068042806D1FFE72B98B4
:102B2000016800208863049013E02A9880680828D0
:102B300006D1FFE72B9801680020C863039005E0E9
:102B40002B980168002008640390FFE70398049025
:102B5000FFE70498FFE72A98C06828B9FFE72B9899
:102B600001680020486320E02A98C068042806D144
:102B7000FFE72B98016800208863029013E02A98F1
:102B8000C068082806D1FFE72B9801680020C863B9
:102B9000019005E02B980168002008640190FFE790
:102BA00001980290FFE70298FFE7FFE72C98406941
:102BB000002840D1FFE72C98807A78B9FFE72C985D
:102BC000007C28B1FFE72C99487C0138487404E068
:102BD0002C99487C01304874FFE723E040F238101C
:102BE000C2F2000001684B1C2C99897A9DF8A7203D
:102BF000B1FBF2F293FBF2F101FB123101600068CC
:102C000078B9FFE72C98007C28B1FFE72C99487C25
:102C10000138487404E02C99487C01304874FFE77F
:102C2000FFE7FFE72C99CA7A4B7CB3FBF2F000FB7D
:102C300012304874FFE700208DF8B700FFE79DF8D9
:102C4000B7002EB080BD000080B586B0049003911F
:102C50000398002102F07EF938B1FFE70398049948
:102C6000086100208DF8170037E040F20000C2F242
:102C700000000068049989680968896A0131B0FB1D
:102C8000F1F001F0C7FE00900191039802F0CEF838
:102C9000024600980B46019923F0004301F0ECFC3A
:102CA00001F074FE029002980499B1F85420B0FB30
:102CB000F2F00979B0FBF1F002900298B0F5803F94
:102CC00004D3FFE701208DF8170006E0039804996C
:102CD000086100208DF81700FFE79DF8170006B087
:102CE00080BD000080B586B0DDF820C0049003915F
:102CF00002920193049820B9FFE701208DF8170094
:102D00004FE003980499C863029804998863019876
:102D10000499486408980499086404990120C860DB
:102D20000498C06A002102F015F990B1FFE70498F9
:102D3000006B002102F00EF958B1FFE70498406BD8
:102D4000002102F007F920B1FFE704990020C860D4
:102D5000FFE70498C06B002102F0FCF858B1FFE7D0
:102D60000498806B002102F0F5F820B1FFE7049988
:102D70000020C860FFE70498006C002102F0EAF828
:102D800058B1FFE70498406C002102F0E3F820B14D
:102D9000FFE704990020C860FFE700208DF81700C6
:102DA000FFE79DF8170006B080BD000080B58AB02F
:102DB00008908DF81F109DF81F1001200229039024
:102DC0002BD0FFE79DF81F1001200429039024D089
:102DD000FFE79DF81F100120082903901DD0FFE791
:102DE0009DF81F1001201029039016D0FFE79DF8D1
:102DF0001F100120202903900FD0FFE79DF81F101E
:102E000001204029039008D0FFE79DF81F0080387B
:102E1000B0FA80F040090390FFE70398C00720B99B
:102E2000FFE701208DF827005CE09DF81F0008995E
:102E300081F85600089890F8560040080690002047
:102E40000590FFE70598069988422CD2FFE7059880
:102E500001F0C9FD00220023C3F6E07301F05CFB22
:102E60004FF0C04242F2FB13C3F6F97301F0E6FDE6
:102E700001900291069801F0CDFD024601980B46A3
:102E8000029901F0F9FB01F0C5FA01F013FB059A74
:102E900040F24011C2F2000141F82200FFE705981C
:102EA00001300590CEE700200490FFE704980699D2
:102EB000884213D2FFE7069A049BD01A40F24011D1
:102EC000C2F2000101EB800050F8040C1A4441F8F2
:102ED0002200FFE7049801300490E7E700208DF816
:102EE0002700FFE79DF827000AB080BD80B586B0B7
:102EF0000490039102920193049820B9FFE7012006
:102F00008DF817004CE003980499C8620298049960
:102F1000086301980499486304990120C8600498E3
:102F2000C06A002102F016F890B1FFE70498006B28
:102F3000002102F00FF858B1FFE70498406B002120
:102F400002F008F820B1FFE704990020C860FFE70D
:102F50000498C06B002101F0FDFF58B1FFE7049811
:102F6000806B002101F0F6FF20B1FFE704990020FB
:102F7000C860FFE70498006C002101F0EBFF58B136
:102F8000FFE70498406C002101F0E4FF20B1FFE767
:102F900004990020C860FFE700208DF81700FFE7C4
:102FA0009DF8170006B080BD89B0DDF828C0DDF8B7
:102FB00024C00790069105920493079820B9FFE773
:102FC00001208DF82300A4E0069820B9FFE7012036
:102FD0008DF823009DE0059901200390C9B1FFE71A
:102FE000059901200429039013D0FFE705990120DA
:102FF000082903900DD0FFE7059901200C290390C3
:1030000007D0FFE705983C38B0FA80F040090390FC
:10301000FFE70398C00700286BD1FFE70499012060
:103020000290C9B1FFE7049901200429029013D04E
:10303000FFE704990120082902900DD0FFE70499C9
:1030400001200C29029007D0FFE704983C38B0FA21
:1030500080F040090290FFE70298C007002848D19D
:10306000FFE7099901200190C9B1FFE70999012003
:103070000429019013D0FFE7099901200829019044
:103080000DD0FFE7099901200C29019007D0FFE737
:1030900009983C38B0FA80F040090190FFE70198A8
:1030A000C00730BBFFE70A9901200090C9B1FFE7D4
:1030B0000A9901200429009013D0FFE70A99012002
:1030C000082900900DD0FFE70A9901200C290090F3
:1030D00007D0FFE70A983C38B0FA80F0400900902A
:1030E000FFE70098C00720B9FFE701208DF8230013
:1030F0000FE005980799886604980799C8660998AB
:10310000079908670A980799486700208DF82300F7
:10311000FFE79DF8230009B07047000070470000EA
:1031200080B582B001900199012008600198006A81
:10313000002101F00FFF90B1FFE70198406A0021E4
:1031400001F008FF58B1FFE70198806A002101F003
:1031500001FF20B1FFE7019900200860FFE7019817
:10316000006B002101F0F6FE58B1FFE70198C06A3C
:10317000002101F0EFFE20B1FFE701990020086077
:10318000FFE70198406B002101F0E4FE58B1FFE732
:103190000198806B002101F0DDFE20B1FFE701996D
:1031A00000200860FFE702B080BD000080B58EB04F
:1031B0000A9009910A9840680999096802F05EF935
:1031C000079007980A99896B01F0E0FE20B9FFE7A4
:1031D0000A98806B07900BE007980A99496B01F0F9
:1031E000CEFE20B9FFE70A98406B0790FFE7FFE7A4
:1031F0000A9800F1080107980D910C900D9906911D
:103200000C9801900868029048688A680492C9681E
:1032100002F068F8019902460298039202F062F8FF
:10322000039901F02FFE0699024604980592096958
:1032300002F058F8059901F025FE0699496901F058
:1032400021FE0B900D99C86808610C980D99C86013
:103250000B980D9948610B98089008980A99096B8A
:1032600001F094FE20B9FFE70A98006B08900BE08C
:1032700008980A99C96A01F082FE20B9FFE70A9806
:10328000C06A0890FFE7FFE70A984068002101F054
:1032900061FE48B9FFE70A9808300021FCF794FF67
:1032A00008980999086007E00A980830FCF7B0FF11
:1032B000099900200860FFE70EB080BD80B586B098
:1032C0000490039140F29000C2F20000006803995C
:1032D00001F040FE20B1FFE700208DF81700CDE09F
:1032E0000398002101F052FE28B9FFE7049900205D
:1032F00081F85C0004E00499012081F85C00FFE79C
:103300000398002101F026FE002840F0AF80FFE77F
:1033100040F20000C2F20000006804998968096860
:10332000896A0131B0FBF1F001F074FB009001916A
:10333000039801F07BFD024600980B46019923F0AB
:10334000004301F099F901F021FB029002980499E1
:10335000B1F85420B0FBF2F00979B0FBF1F0029023
:10336000029840080290049890F85600022824D051
:10337000FFE7049890F8560004281ED0FFE7049851
:1033800090F85600082818D0FFE7049890F85600E7
:10339000102812D0FFE7049890F8560020280CD08F
:1033A000FFE7049890F85600402806D0FFE70498FD
:1033B00090F85600802811D1FFE7049890F8561035
:1033C0000298B0FBF1F0029004980079022804D131
:1033D000FFE7029880000290FFE7FFE7BDF80A00D0
:1033E00078B9FFE7FFE70298049989680968C8621D
:1033F000029804998968C860FFE70499002008666C
:1034000033E040F20000C2F20000006804998968CD
:103410000968896A0131B0FBF1F044F6D351C1F279
:103420006201A0FB011080090290BDF80A0060B99A
:10343000FFE7FFE70298049989680968C862029863
:1034400004998968C860FFE70BE0FFE7049880688B
:1034500001684FF6FF70C86204998968C860FFE789
:10346000FFE7049901200866FFE703E004990120C3
:103470000866FFE700208DF81700FFE79DF81700AA
:1034800006B080BD82B0019001980079014600919C
:10349000012804D0FFE70098022839D080E0019984
:1034A000042081F85700019940F20400C2F20000A4
:1034B00088650198007940F29401C2F20001097810
:1034C000884224D0FFE7019890F85600F0B1FFE75A
:1034D00040F23811C2F200010020086040F23C11B5
:1034E000C2F20001087040F23D11C2F20001087002
:1034F00040F23E11C2F20001087040F23F11C2F2E8
:1035000000010870019981F85D00FFE7FFE754E0D2
:10351000019890F8560058B9FFE70199082081F802
:103520005700019940F20C00C2F20000886536E0B5
:103530000199042081F85700019940F21C00C2F261
:10354000000088650198007940F29401C2F2000100
:103550000978884222D0FFE740F23811C2F2000118
:1035600000200860019991F85610490840F23C1279
:10357000C2F20002117040F23D11C2F20001087067
:1035800040F23E11C2F20001087040F23F11C2F257
:1035900000010870019981F85D00FFE7FFE70CE08A
:1035A000019900200871019981F85700019940F2B2
:1035B0000400C2F200008865FFE70198007940F23C
:1035C0009401C2F20001087002B0704780B582B069
:1035D000009000980138B0F1807F03D3FFE701200D
:1035E000019019E0009801384EF21401CEF200016A
:1035F00008604FF0FF300F2100F038FB4EF2180149
:10360000CEF20001002008604EF21002CEF200025D
:10361000072111600190FFE7019802B080BD000012
:1036200080B5FDF7A3F980BD80B590B006A80090E5
:103630002821FCF7F7FD00980023059304930393DA
:1036400002930193012206924FF48031079108936F
:103650000A9202220D920E914FF4E0110F91FDF7A4
:10366000DFFB18B1FFE7FCF751FEFFE70F200190E9
:1036700002210291002003904FF480620492059091
:1036800001A8FDF72BFA18B1FFE7FCF73FFEFFE7B3
:1036900010B080BD7047000080B582B040F2F000ED
:1036A000C2F200000190FEF765F901980068006819
:1036B000C006002807D4FFE740F24030C2F2000005
:1036C000FEF7C2FDFFE702B080BD000083B00290AC
:1036D0000191029800680090029842F60041C4F2FD
:1036E0000101884215D0FFE70298B0F1804F10D059
:1036F000FFE7029840F20041C4F20001884208D07E
:10370000FFE7029840F60001C4F2000188420AD1A6
:10371000FFE7009820F07000009001984168009841
:1037200008430090FFE7029842F60041C4F201010D
:10373000884215D0FFE70298B0F1804F10D0FFE724
:10374000029840F20041C4F20001884208D0FFE72D
:10375000029840F60001C4F2000188420AD1FFE756
:10376000009820F4407000900198C16800980843C8
:103770000090FFE7009820F0800001994969084314
:103780000090009802990860019880680299C862C8
:103790000198006802998862029842F60041C4F2DA
:1037A0000101884205D1FFE7019800690299086389
:1037B000FFE702990120486102980069C00730B113
:1037C000FFE70299086920F001000861FFE703B0F4
:1037D0007047000084B0039002910192029800F0BB
:1037E0001F01012088400090009A0399086A9043C5
:1037F00008620198029901F01F0100FA01F2039991
:10380000086A1043086204B07047000085B0049055
:10381000039102920193049880680090009820F42C
:103820007F40009003980299019A41EA02210143E6
:1038300000980843009000980499886005B070478C
:1038400083B002900191029880680090009820F067
:103850007000009001980099084340F00700009024
:1038600000980299886003B07047000085B004900A
:1038700003910498006A01900499086A20F00100FD
:103880000862049840680090049880690290029849
:1038900020F070000290029820F00300029003983C
:1038A0000168029808430290019820F002000190FC
:1038B00003988168019808430190049842F60041FA
:1038C000C4F2010188420ED1FFE7019820F0080000
:1038D00001900398C168019808430190019820F075
:1038E00004000190FFE7049842F60041C4F2010190
:1038F000884213D1FFE7009820F480700090009870
:1039000020F40070009003984169009808430090EB
:1039100003988169009808430090FFE70098049994
:103920004860029804998861039840680499486344
:1039300001980499086205B07047000085B00490B2
:1039400003910498006A01900499086A20F010001D
:103950000862049840680090049880690290029878
:1039600020F4E0400290029820F440700290039806
:103970000168029840EA01200290019820F020009E
:10398000019003988168019840EA01100190049821
:1039900042F60041C4F2010188420FD1FFE70198CD
:1039A00020F0800001900398C168019840EA01105E
:1039B0000190019820F040000190FFE7049842F642
:1039C0000041C4F20101884215D1FFE7009820F4BC
:1039D00080600090009820F4006000900398416996
:1039E000009840EA8100009003988169009840EABD
:1039F00081000090FFE700980499486002980499BC
:103A00008861039840680499886301980499086262
:103A100005B0704785B0049003910498006A019046
:103A20000499086A20F48070086204984068009045
:103A30000498C0690290029820F0700002900298E9
:103A400020F0030002900398016802980843029056
:103A5000019820F40070019003988168019840EA71
:103A600001200190049842F60041C4F2010188420D
:103A70000FD1FFE7019820F4006001900398C1681E
:103A8000019840EA01200190019820F480600190A3
:103A9000FFE7049842F60041C4F20101884215D1C3
:103AA000FFE7009820F480500090009820F4005028
:103AB000009003984169009840EA01100090039833
:103AC0008169009840EA01100090FFE7009804998E
:103AD000486002980499C861039840680499C863D3
:103AE00001980499086205B07047000085B0049001
:103AF00003910498006A01900499086A20F48050A8
:103B000008620498406800900498C0690290029886
:103B100020F4E0400290029820F440700290039854
:103B20000168029840EA01200290019820F40050B8
:103B3000019003988168019840EA0130019004984F
:103B400042F60041C4F2010188420BD1FFE7009820
:103B500020F48040009003984169009840EA811069
:103B60000090FFE700980499486002980499C861A2
:103B7000039840680499086401980499086205B0A4
:103B80007047000085B00490039102920498006A87
:103B900000900499086A20F0010008620498806986
:103BA0000190019820F0F00001900299019840EAFC
:103BB00001100190009820F00A00009003990098ED
:103BC000084300900198049988610098049908625C
:103BD00005B0704785B00490039102920498006A82
:103BE00000900499086A20F0100008620498806927
:103BF0000190019820F4704001900299019840EAE8
:103C000001300190009820F0A000009003990098E6
:103C100040EA011000900198049988610098049985
:103C2000086205B070470000FFE7FEE781B08DF83D
:103C300003009DF9030000280ED4FFE79DF903104F
:103C400001F01F02012090404A094EF20011CEF20D
:103C5000000141F82200FFE701B070474EF60C501A
:103C6000CEF200000068C0F30220704782B08DF8E9
:103C7000070000919DF9070000280AD4FFE700988B
:103C800000019DF907104EF20042CEF20002885466
:103C90000BE0009800019DF8071001F00F014EF6AF
:103CA0001452CEF200028854FFE702B070470000C1
:103CB00083B00290029800F0070000904EF60C517D
:103CC000CEF200010868019001984FF6FF02104003
:103CD00001900198009A40EA02200022C0F2FA52B4
:103CE000104301900198086003B0704780B588B018
:103CF00000200290079042F20401CEF2040108680D
:103D000040F480600860FCF73FFEFFF78DFCFEF793
:103D100025F9FEF787F9FEF761F9029B40F2403082
:103D2000C2F20000059041F26F22C3F60332194639
:103D3000FFF7DCF805986A464FF03F41116000211B
:103D4000C4F27A410022CCF27A424FF07C53FEF763
:103D5000C9FF029A05986B460C215960082103910E
:103D6000196040F2F001C2F2000104910423FFF750
:103D70001BF903990598FFF719F804990598012292
:103D8000C823FEF7D3FA0598FEF7A0FBFCF756FC14
:103D90000690FFE740F29800C2F20000016840F28E
:103DA0004030C2F20000FEF74FFFF3E7490050EA4F
:103DB000C12018BF04204A0D18BF40F0010040F296
:103DC000FF72B2EB515F08BF40F00200012808BF4C
:103DD000052070472DE9F74F144694B00021C4E93F
:103DE00002111599079121F00045C9498D4206DC61
:103DF0001599C4E9000117B00020BDE8F08FC5494E
:103E0000DFF814A3A9423CDD0799C44E0029C44F32
:103E1000C44A1599534619DD00F01AFF554506D0DE
:103E2000C14AC24B00F014FFC4E900010AE04FF0A0
:103E3000D352BE4B00F00CFF32463B4600F008FF69
:103E4000C4E9000117B00120BDE8F08F00F064FB69
:103E5000554506D0B44AB54B00F05EFBC4E90001FD
:103E60000AE04FF0D352B14B00F056FB32463B46CE
:103E700000F052FBC4E9000117B04FF0FF30BDE87D
:103E8000F08FAB49A942159978DB21F000418346B8
:103E90008846A84AA84B00F0D1FD0022A74B00F0AD
:103EA0003BFB00F043FD099000F09DFD06460F46E8
:103EB0009C4A534600F0C2FD43465A4600F0BCFE01
:103EC00080468A46984A994B3046394600F0B6FDFE
:103ED0002A0D01250B924246534600F0ADFE032DFC
:103EE000C4E9000139D00B98C1F30A51401A05EB1F
:103EF00045111139814230DA9148C346784400EBCC
:103F00000510CDF80CA00C90D0E9002330463946BE
:103F100000F094FD02460B46049106905846039922
:103F200000F096FE80468A4602460B4658460399A4
:103F300000F08EFE049B069A00F08AFE83460C98E1
:103F400003913946D0E90223304600F077FD5A4606
:103F5000039B00F07DFE6D1CBDE707980028A2BF03
:103F6000099817B0BDE8F08F616881F00041616089
:103F7000099817B04042BDE8F08FFFE784461598D6
:103F8000C1F31301C0F30A50A0F2F5304FEA6018F4
:103F900000F01F06C6F12000139000200690079045
:103FA00041F4801E05206D4676B1664A08EB00019B
:103FB0007A4452F8213002EB8101B3404A681399E8
:103FC00022FA01F1194305E05F4908EB0002794448
:103FD00051F82210A1FB0E27A1FB0C131A449A42A0
:103FE00034BF0123002303EB070A05EB8003D3E969
:103FF00001B70F448F4234BF0121002193448B4409
:1040000011B1934502D903E0934501D2012100E0AB
:104010000021C3E901B7514445F82010011EA0F169
:104020000100C1DC0298059F00F10050800F129042
:104030000298DDE90356800000F0D5FC834628464F
:104040000D9100F0E7FC6FF01D0201F0BEFACDE922
:104050000E01304600F0DEFC6FF03D0201F0B5FAD3
:1040600080468A46384600F0D5FC6FF05D0201F0CC
:10407000ACFA074642465346119100F04DFADDE98D
:104080000E2300F049FA5A460D9B00F045FA002530
:104090000E465A4628460D9B00F0DAFDDDE90E2358
:1040A00000F0D6FD4246534600F0D2FD3A46119B41
:1040B00000F0C2FDDFF898A0244A534600F0BEFC91
:1040C00007468846234A244B3146284600F0B6FC72
:1040D0003A46434600F020FA074688464FF0A84289
:1040E00053463146284600F0A9FC3A46434600F0C4
:1040F00013FA159A12F0004F04D0129A81F0004181
:1041000052421292C4E90001129817B0BDE8F08F34
:10411000FB21E93F7CD90240FB21F93F7370032E5C
:104120008A19A33B000040543163621A61B4D03D48
:10413000FB21394183C8C96D305FE43F0000E03F97
:10414000D81700005417000036170000182D4454EB
:10415000FB21F93D3326A611460B113C2DE9FF4DFD
:1041600021F0004807460C46B8F1795F08DA00F004
:10417000DDFB002801BF0020324904B0BDE8F08D0E
:104180003A4623461046194600F058FC05460246BA
:104190002D480E460B460621784400F05DF82A466D
:1041A000334600F04BFCDDE9022382468B4638465D
:1041B000214600F043FC04460F4652465B46284623
:1041C000314600F03BFC22463B4600F041FD0746ED
:1041D0008A464FF0FF322846314601F0F6F91B4A75
:1041E00090450ADA3A46534600F032FD04B0002208
:1041F000BDE8F04D134B00F01FBD154A4245A8BF66
:10420000A8F500154FF00004B8BF124D22462B460A
:1042100000F01EFD0646884622462B46002009492E
:1042200000F016FD04460D463A46534630464146D8
:1042300000F00EFD04B022462B46BDE8F04D00F024
:10424000FBBC00000000F03F0C1500003333D33FEF
:104250000000E93F0000D23F2DE9F0414F1E00EB86
:10426000C7010446D1E9000115461E4637F0060293
:104270000DD02A46334600F0E1FB7F1E04EBC70356
:10428000D3E9002300F048F937F00602F1D1022FFC
:1042900025D0042F13D0062F18BFBDE8F0812A4681
:1042A000334600F0CBFBD4E90A2300F035F92A4667
:1042B000334600F0C3FBD4E9082300F02DF92A4669
:1042C000334600F0BBFBD4E9062300F025F92A466B
:1042D000334600F0B3FBD4E9042300F01DF92A466D
:1042E000334600F0ABFBD4E9022300F015F92A466F
:1042F000334600F0A3FBD4E90023BDE8F04100F011
:104300000BB900002DE9FF4D054621F0004084B0B7
:104310000C46B0F1795F0BDA2846FFF747FD042819
:1043200008BF00F06FF8284608B02146BDE8F08DC0
:104330002A460B46104600F081FB06460F462A46E9
:10434000234600F07BFB804626488A4632463B46A1
:1043500005217844FFF780FF83461098029160B3EF
:10436000214A224B4046514600F068FBCDE900014E
:104370005A4640465146029B00F060FB8246884602
:10438000DDE906014FF0FF3201F01FF952464346C6
:1043900000F05EFC32463B4600F050FBDDE90623B0
:1043A00000F056FCDDE9002300F052FC08B02A467C
:1043B0002346BDE8F04D00F03FBC0B465A46304660
:1043C000394600F03BFB084A084B00F0A5F842468E
:1043D000534600F033FB08B02A462346BDE8F04DB3
:1043E00000F09AB852140000495555555555C5BFAF
:1043F000012201F0EAB8002213461046114600F0EF
:104400003BB90000024A0020110701F0DEB80000AD
:1044100001FDFFFF00B5254B21F0004287B09A4215
:1044200003DC0022134600922BE0214B9A4208D174
:1044300040B94FF00100FBF728FFFFF7DCFF07B0A2
:1044400000BD03DBFFF7D4FF07B000BD02AAFFF7F2
:10445000C1FC10F003014FF001000DD0012914D070
:1044600002291AD00DF1080C9CE80F00FFF776FE28
:1044700007B081F0004100BD0DF1080C00909CE8F0
:104480000F00FFF73FFF07B000BD0DF1080C9CE8DF
:104490000F00FFF763FE07B000BD0DF1080C0090A0
:1044A0009CE80F00FFF72EFFE2E70000FB21E93F49
:1044B0000000F07F21F0004201F00043A2F16052C1
:1044C000B2F5801F28BFD2F17F6C0BD95FEA001CC8
:1044D00043EAC20242EB507018BF704728BF20F079
:1044E00001007047B2F5801FBCBF184670474FEA05
:1044F000410C1CF5001F02D2084600F0BABF70B58F
:1045000000F046FB00000089FFF7F6BF4FF00040C7
:10451000A0F580007047000010B591EA030F48BF76
:1045200083F0004300F19C83841A71EB030C05D2E5
:10453000121943EB0C03001B61EB0C014FEA115401
:10454000A4EB135CDFF81CE11EEA430F18BF9EEAE0
:10455000445F00F0748021EA045123EA0E0343F41F
:104560008013DCF1200E32D322FA0CFE10EB0E0089
:1045700023FA0CFE41EB0E01CCF1200E03FA0EFEE5
:1045800010EB0E00CCF1200E51F10001B1F5801FAF
:1045900032D201EB045112FA0EF2BDE8104058BFBE
:1045A0007047401C38BF5FEA420218BF70470028BE
:1045B00014BF20F0010041F100014FEA410313F55F
:1045C000001F38BF7047A1F1C04100F02FBB012A86
:1045D00043EB0302ACF1200CDCF11F0E32BF4FF0B5
:1045E000000E23FA0CF310EB030041EB0451B4EB83
:1045F000115FD0D0A1EB045101F58011490801EB06
:1046000004515FEA30000ED350F1000038BF12FAB7
:104610000EFE08D1BDE81040C9E7401C38BF5FEA74
:104620004202CAD1C3E7BDE810404FEA410313F587
:10463000001F38BF7047A1F1C04100F0F7BA9EEAF1
:10464000445F08D011EA5E0FBDE8104004BF01F0DE
:10465000004100207047BDE8104070B500F098FAA6
:1046600064FBBE3E0000E0FF02494FF0000000F096
:104670007ABF00BF0000F87F2DE9C04130B4DFF8F9
:10468000A4C23CEA111418BF3CEA131400F0ED80F8
:104690001CEA111481EA030544EAD57418BF1CEA28
:1046A000131500F0C880A4EB050404F17F7404F531
:1046B00000344FF0004545EAC12145EAC32341EAF1
:1046C000505143EA52534FEAC0204FEAC222994266
:1046D00008BF904200F09D804FEA13650FF2441628
:1046E000765D4FEA134506FB05F7C7F1807706FBB9
:1046F00007F74FEAD737A7FB03687642A7FB06CE3A
:10470000C8F5803838BFA8F1010807FB08E6A6FB0A
:10471000028C4FF0000EE6FB03CEDCF1000CCEF174
:10472000004E38BFAEF1010EA6FB0C584FF000074B
:10473000E6FB0E87A1FB08C6A0FB07CE16EB0E0614
:104740004FF0000545F10005E1FB076515F1E04E6E
:104750007EBFA4F580345FEA46066D4116F18007FE
:1047600045F100054FEA172747EA05674FEA152587
:104770004FEA0666A6F1DE46B6F1805F20D93846DC
:1047800005EBC47124F0010C01EB0C11BCF1FE6FC0
:1047900002D8F0BCBDE8008124425CBF01F5801E58
:1047A0009EEAC47F02D4F0BCBDE80081244200F13F
:1047B0003980A1F1C041F0BCBDE8004100F036BA3B
:1047C0004FEAD02040EA41504FEAD1214FEAD222AD
:1047D00042EA43524FEAD323A7FB028607FB036654
:1047E00005FB02661EEA0E0F58BFA6EB0056B6EB9D
:1047F00000564FEA520E4EEAC37E18EB0E0E56EBF1
:10480000530EBCD518EB02085E417F1C55F1000524
:10481000B5E74FF480154FF000074FF000064FF05A
:104820000008ACE701F1C04101F000414FF0000089
:10483000F0BCBDE800810CEA131511EA0C1F00D092
:104840000CE013EA0C1F00F026804FF0000081EA14
:10485000030101F00041F0BCBDE80081F0BCBDE8FF
:10486000004181EA030100F0E1B9F0BCBDE800417C
:1048700070B500F08DF900BF097EFC3E00F007B86E
:104880004FF0000081EA030101F00041704781EA26
:10489000030100F0CBB9F0BCBDE8004122494FF064
:1048A00000007047FFFDFBF9F7F5F4F2F0EEEDEBD9
:1048B000E9E8E6E4E3E1E0DEDDDBDAD8D7D5D4D31E
:1048C000D1D0CFCDCCCBCAC8C7C6C5C4C2C1C0BF6A
:1048D000BEBDBCBBBAB9B8B7B6B5B4B3B2B1B0AF70
:1048E000AEADACABAAA9A8A8A7A6A5A4A3A3A2A154
:1048F000A09F9F9E9D9C9C9B9A999998979796950F
:1049000095949393929191908F8F8E8E8D8C8C8BAA
:104910008B8A898988888787868585848483838232
:10492000828181800000FF070000F87F4FEA410389
:104930004FEA5353A3F58063D3F11E03C8BFD3F1ED
:10494000210C0CDD4FF0004242EAC12242EA5052F3
:1049500032FA03FC8CEAE17CACEBE1707047102B7F
:10496000C4BF0020704703F5787CBCF1FF3F04D042
:104970006FF0004282EA2100704770B500F008F93C
:104980004992248000207047F2E700004FEA11535B
:10499000A3F58063D3F11E03A8BFD3F1200C08DB7D
:1049A0004FF0004242EAC12252EA505232FA03F07A
:1049B000704709420BD4102BC4BF0020704703F589
:1049C000787CBCF1FF3F05D04FF0FF3070474FF0CF
:1049D0000000704770B500F0DBF800BF49922480FA
:1049E00000207047F0E710F0004248BF4042B0FAA4
:1049F00080F310FA03F10AD0C3F11D0303F58063BD
:104A000002EB03524FEA415002EBD12170474FF0C5
:104A100000007047B0FA80F310FA03F10AD0C3F136
:104A20001D0303F580634FEA03524FEA415002EB46
:104A3000D12170474FF000007047000070B5DFF8DB
:104A400048C11CEA111E1EBF1CEA13159EEA0C0F7A
:104A500095EA0C0F00F06F8081EA03044EEAD47EE1
:104A6000AE4421EA4C1123EA4C1341F4801143F483
:104A70008013AEF17F7EA1FB024CA0FB03653619CB
:104A800055EB0C05A1FB034C4CF10003A0FB021CF1
:104A900016EB0C06654153F10003094218BF46F0BE
:104AA000010613F4007F0BD14FEA03314FEA0530C2
:104AB00041EA155140EA165034036FF003020AE050
:104AC0004FEAC3214FEAC52041EA555140EA56500A
:104AD000F4026FF0020202EB2E4201EB025585EA6E
:104AE000CE710AD05FEA440C18BF24F0004450F1A4
:104AF000000041F1000120EAD47040F2FE7C6245E2
:104B000000D270BDA84214BF4FF080444FF0404423
:104B1000002E08BF0024BEF1806FA8BFA1F1C041E4
:104B2000BDE8704080F2828001F1C04101F0004197
:104B30004FF0000070470CEA13159EEA0C0F18BFE7
:104B400095EA0C0F06D081EA030E4FF000000EF03C
:104B5000004170BD00F01CF88900013E00F007B86C
:104B600000F009B84FEA430C5FEA5C5C08D081EAC8
:104B7000030100F05BB84FEA410C5FEA5C5CF6D1E0
:104B800002494FF0000070470000FF070000F87F67
:104B90000EF1020E2EF0030E5EF8046B364205D4C1
:104BA000012A43EB030515F5001F12D8012841EB3C
:104BB000010C1CF5001F0CD80ED14FEAD17C0CEB78
:104BC0004C0C0CF1020C15F5001F08BF4CEBD37C0C
:104BD00004E04FF0080C01E04FEAD37C0CEB4C05ED
:104BE00026FA05F606F00706B6F1040C06D20EEB1F
:104BF000860CBDE870404CF0010C6047DFE80CF01B
:104C0000090B02024FF00041A1F500214FF0000016
:104C100070BD19461046012851EB010418BFD4F5A8
:104C2000001484BF002001F0004170BD0808A0F509
:104C300000114FEA3101704710B591EA030F81F07E
:104C400000413FF571AC83F0004300F009B800006B
:104C500010B591EA030F48BF83F000433FF564AC01
:104C6000841A71EB030C07D28CF0004C121943EB41
:104C70000C03001B61EB0C014FEA1154A4EB135C15
:104C8000DFF8A4E11EEA430F18BF9EEA445F00F07C
:104C9000B48021EA045123EA6E035242C3EB6E034F
:104CA00038BF5B1EDCF1200E25D322FA0CFE10EB80
:104CB0000E0043FA0CFE41EB0E01CCF1200E03FA7C
:104CC0000EFE10EB0E00CCF1200E51F1000129D4A4
:104CD00001EB045112FA0EF2BDE8104058BF7047C4
:104CE000401C1CBFB2F1004F704700280CBF491C8C
:104CF00020F00100704712EB020E43EB030218BFD5
:104D00004FF0010E4EEA4202ACF1200CDCF11E0E17
:104D100056D943FA0CFE10EB0E00CCF11E0E51F1E9
:104D2000FF31D5D50EF1010E12FA0EFE404141EBD6
:104D3000010101EB445C5FEA5C5C10D901EB0451BA
:104D400010EBDE7038BFBEF1004FBDE8104018BF59
:104D5000704700280CBF491C20F00100704734D276
:104D60004FEAD42C24F4006411F500111BD0B1FAE1
:104D700081F20B3AA41AA41ED2F12003914030FA1A
:104D800003F31943904001EBCC7101EB0451002C6B
:104D9000BDE81040A8BF704701F1C04101F00041DB
:104DA0004FF000007047B0FA80F310FA03F102D11F
:104DB000BDE810407047E41A173C4805C90AE2E70D
:104DC00001EB0451BDE81040704749104FEA300034
:104DD00001EB0451BDE8104002E04FF000017047C4
:104DE0004A0008BF0042F8D0B2F5001F28BF704744
:104DF00001F000414FF0000070479EEA445F07D089
:104E000011EA5E0FBDE8104004BF0021002070478A
:104E1000BDE8104070B5FFF7BBFE00BF40DFF63EB7
:104E2000104683F0004170470000E0FF43004FEA66
:104E3000D30C4FEA3C0C43401FBF40070CF16051BC
:104E400013F0FE4F70471CF0006F03D10CF00041CF
:104E5000002070470CF0004343EA507040EACC0059
:104E600010B500F0C0FA00BF000000924FEA000148
:104E7000FFF7DCBE4FF00041A1F500214FF000002C
:104E80007047000090EA010F48BF81F0004100F137
:104E9000FC82421A3CBF801A89184FEAD052A2EB1A
:104EA000D1534FF07F4C1CEA410F18BF9CEA026FB0
:104EB00000F03B804FF0004C4CEA00204CEA01210E
:104EC00021FA03FC10EB0C0C1ED202F1FF325FEA58
:104ED0001C2040EBC25038BF70471CF07F0F4FEAD8
:104EE000400C18BFBCF17F4F38BF7047C3F120039F
:104EF000994008BF20F00100BCF17F4F38BF7047D8
:104F0000A0F1C04000F0B5BA4FEA3C00000A40EB07
:104F1000C25028BF1CF0FF0F4FEA400CE6D018BF6C
:104F2000BCF17F4F38BF7047EAE79CEA026F05D0BB
:104F300010EA5C0F08BF00F00040704710B500F0A9
:104F400052FA00BF64FBBE3E014800F00CBB00BF3C
:104F50000000C07F10B500F0F5F80CBF0120002064
:104F600010BD10B500F0EEF814BF0120002010BDF8
:104F700010B500F04FF98CBF0120002010BD10B516
:104F800000F048F92CBF0120002010BD10B500F042
:104F900075F994BF0120002010BD10B500F06EF926
:104FA00034BF0120002010BD401058BFC0F1404068
:104FB000491058BFC1F140418142EFF30080704772
:104FC0004FF47F0C1CEAD0121EBF1CEAD11392EAE8
:104FD0000C0F93EA0C0F00F0858090EA010F48BF98
:104FE00042F4807240F4000C41F400002CF07F4148
:104FF00020F07F4000B5A2EB030281420FF2081CB3
:10500000ACEB504E9EF800E0C0F100004FEA4E0EAF
:1050100000FB0EFC38BF49004FEA2C1C0CFB0EF3C2
:105020004FEACE1E0EEB635E4FEA112C0EFB0CFC1A
:105030004FEAC1214FEA1C5300FB031102F5FA02AB
:105040004FEA112C0EFB0CFC4FEA01314FEADC4C0D
:1050500000FB0C1142EB2242C14228BF09184CEB65
:1050600003335DF804EB10EB410143EBC250B2F5A2
:105070007C0F38BF704729D512F0F00F1CBF00F12C
:10508000C04000F00040704700818283848586879D
:1050900088898B8C8D8E8F919293959697999A9CF7
:1050A0009D9FA0A2A3A5A7A8AAACAEB0B2B3B5B766
:1050B000B9BCBEC0C2C5C7C9CCCED1D4D7D9DCDF3C
:1050C000E2E6E9ECF0F3F7FAFE0000004FEA400CEC
:1050D0000CF1807CBCF17E4F28BF7047B0F1C0401E
:1050E00000F0C7B90CEAD11390EA010F48BF42F4AF
:1050F0008072624538BF634507D213F47F0F16D024
:1051000080EA010000F00040704710B500F06BF934
:10511000097EFC3E00F005B880EA010000F0004086
:10512000704780EA010000F0004000F0A2B912F4DC
:105130007F0F04BF0248704780EA010000F099B970
:105140000000C07F50EA010C00F113801CF5000F35
:1051500058BFBCF5000F01D48842704707D710F53F
:10516000000F58BF11F5000F15D4884270478942CF
:1051700070471CF5000F04D5BCF5000FF7D5814230
:1051800070474FF0807C1CEB400F38BF1CEB410F89
:1051900001D28142704710B500F025F992244900F0
:1051A0004FF000504FF08051FFF7FEBEC10DD1F11E
:1051B0009E0206DB4FEA002343F0004323FA02F08D
:1051C0007047004207D54FEA4001B1F1FE4F02D2CD
:1051D0004FF00000704710B500F005F949922480A7
:1051E000002070476FEA200070470000B0FA80F39B
:1051F00010FA03F2C3F19D030AD0D90501EB122086
:10520000530638BF704700F1010008BF20F00100CD
:105210007047000050EA010C00F113801CF5000FEC
:1052200058BFBCF5000F01D48842704707D710F56E
:10523000000F58BF11F5000F15D4884270478942FE
:1052400070471CF5000F04D5BCF5000FF7D581425F
:1052500070474FF0807C1CEB400F38BF1CEB410FB8
:1052600001D28142704710B500F0BDF89224490088
:105270004FF080504FF00051FFF796BE50EA010CFE
:1052800000F113801CF5000F58BFBCF5000F01D4CE
:105290008842704707D710F5000F58BF11F5000F6F
:1052A00015D488427047894270471CF5000F04D519
:1052B000BCF5000FF7D5814270474FF0807C1CEBA6
:1052C000400F38BF1CEB410F01D28142704710B52F
:1052D00000F089F8922449004FF000504FF08051BF
:1052E000FFF762BE4FF47F0C1CEAD0121EBF1CEA0F
:1052F000D11392EA0C0F93EA0C0F00F0478090EA6A
:10530000010F48BF42F480724FF0004C4CEA00207D
:105310004CEA012102EB0302A0FB0113A2F50002FB
:10532000002918BF43F001035B0028BF4FEA330395
:1053300042EB22425FEA132C4CEBC2502EBFBCEB77
:10534000436FB2F57C0F70474FEA036CBCF1004F1E
:1053500008BF20F00100B2F57C0F38BF70470BD5B5
:1053600082F0FF0212F5803FC8BF704700F1C040D5
:10537000D8BF00F00040704700F5000C5FEA4C0C0D
:1053800048BF7047B0F1C04000F073B80CEAD113C9
:1053900090EA010F48BF42F48072624538BF63450E
:1053A00004D280EA010000F00040704710B500F020
:1053B0001AF800BF8900013E00F007B800F009B8F4
:1053C0005FEA410C5FEA1C6C08D080EA010000F043
:1053D00050B85FEA400C5FEA1C6CF6D14FF0004019
:1053E000A0F5800070470EF1020E2EF0030E5EF85D
:1053F000044B244204D44FEA4102B2F17F4F11D84A
:105400004FEA4003B3F17F4F0CD80ED14FEAD07C66
:105410000CEB4C0C0CF1020CB2F17F4F08BF4CEBC3
:10542000D17C04E04FF0080C01E04FEAD17C0CEB9A
:105430004C0324FA03F404F00704B4F1040C06D27C
:105440000EEB840CBDE810404CF0010C6047DFE827
:105450000CF0070802024FF00040A0F5800010BDDC
:105460000846420018BFD2F1807288BF00F00040A9
:1054700010BDFF2141EAD050C005704790EA010FEE
:1054800048BF81F000413FF504AD421A04D882F0D4
:105490000042A0EB020011444FEAD052A2EBD153DC
:1054A0004FF07F4C1CEA410F18BF9CEA026F4AD0B4
:1054B0004FF0004C4CEA00204CEA012121FA03FC99
:1054C000B0EB0C0C0FD412F0FE0F36D05FEA4C009C
:1054D0001DD5001240EBC25038BF70471CF03F0F83
:1054E00018BF70470BE05FEA1C20A2F1010240EBFD
:1054F000C25038BF70471CF07F0F18BF7047C3F110
:105500002003994014BF401E20F0010070474FEA6D
:105510001223800808BF7047B0FA80FCA2EB0C028F
:10552000CCF1280C60FA0CF093EA122F04BF00EBC8
:10553000C25070474FEAC3707047130A5FEADC102D
:1055400008BF7047F6E79CEA026F04D010EA5C0FD0
:1055500008BF0020704710B5FFF745FF40DFF63E5B
:1055600081F0004070470CF00F03092B08BF0820A2
:1055700000F07F800A2B0BD0082B18BF704708BFA4
:105580001CF0400F0AD04FF000004FF000017047B0
:105590001CF0400F18BF4FF0004070471CF0100F78
:1055A00008D000F07F4220F0704342EAD3014FEA76
:1055B0004370704700F0604021F07F4242EA0002F1
:1055C00001F07F4040EA727070474FF0FF0C4CF4DE
:1055D000E06C1CEA11531CBF9CEA030C9445C2BF4B
:1055E000DA4201EB02517047002B0DD0BCF1000FE5
:1055F0000FD001F00041002AA4BF41F0E04141F08A
:105600007F614FF00000704701F000414FF0000053
:10561000704750EA01334FF09B0C18BF4CF0806C80
:105620007FF422A870474FF0FF0212EAD0521CBF4D
:1056300092F0FF038B42C2BFD14200EBC1507047D2
:10564000002A0AD0002B0BD000F000400029A4BF94
:1056500040F0FE4040F40000704700F0004070470A
:1056600043024FF00B0C18BF4CF0806C7FF46CAC15
:1056700070471CF4801F11D01CF4E02F03D06FEA98
:10568000CC31490070474FF04050EFF3008222F0D8
:10569000704242EA000282F3008870474FF0000037
:1056A00070470000000000004C5555555555A53F6A
:1056B0007751C1166CC156BF9015CB19A001FA3EA7
:1056C000AD529C804F7E92BEC4B1B4BD9EEE213ED1
:1056D000D43888BEE9FAA8BD00004054FB21F93F48
:1056E0003163621A61B4D03D0000601A61B4D03DEC
:1056F0007370032E8A19A33B0000002E8A19A33B66
:10570000C14920259A837B39000000000000000079
:105710006E83F9A22915444ED15727FCC0DD34F51C
:10572000999562DB4190433CAB6351FE61C5BBDEA2
:105730003A6E24B7E0D24D42EA2E49061C92D109B6
:105740001CEB1DFE3EA729B1F53582E88444BB2E33
:1057500026709CE9417E5FB439D69139F439538380
:105760008B5F849C3B28F9BDFF97F81F0F9805DEDF
:105770008B112FEF1F6D0A5ACF7E366DB709CB27DD
:10578000663F464F2DEA5F9EC7BA27757BF1E5EB72
:10579000F739073DEA92528AB15FFB6B085D8D1FB6
:1057A0004630035600000000A6F810111111813F89
:1057B000D561C119A0012ABF7DFEB157E31DC73EC7
:1057C000EB9C2B8AE6E55ABE7CD5CF5A3AD9E53D0B
:1057D00000000000000000000102030406070809A1
:1057E0000000000001020304020304050607080983
:1057F0000A0B0C0D0E0F10100102000020580008BB
:105800000000002030000000280100085058000867
:105810003000002090090000440100080000000052
:1058200000127A00010004000200080001000500D7
:105830000400060002000A00080009000500060036
:105840000A00090001000000100000000000000034
:04000005080000ED02
:00000001FF
